{"abi":[{"inputs":[{"internalType":"address","name":"_userAddress","type":"address"},{"internalType":"uint256","name":"likes","type":"uint256"}],"name":"addPoint_likes","outputs":[],"stateMutability":"nonpayable","type":"function"},{"inputs":[{"internalType":"address","name":"_userAddress","type":"address"},{"internalType":"uint256","name":"nestedComments","type":"uint256"}],"name":"addPoint_nestedComments","outputs":[],"stateMutability":"nonpayable","type":"function"},{"inputs":[{"internalType":"address","name":"_userAddress","type":"address"}],"name":"addUser","outputs":[],"stateMutability":"nonpayable","type":"function"},{"inputs":[{"internalType":"address","name":"_userAddress","type":"address"}],"name":"getCount","outputs":[{"internalType":"uint256","name":"","type":"uint256"}],"stateMutability":"view","type":"function"},{"inputs":[{"internalType":"address","name":"_userAddress","type":"address"},{"internalType":"uint256","name":"input","type":"uint256"}],"name":"refunds","outputs":[],"stateMutability":"nonpayable","type":"function"},{"inputs":[{"internalType":"address","name":"","type":"address"}],"name":"users","outputs":[{"internalType":"uint256","name":"reflectedLikes","type":"uint256"},{"internalType":"uint256","name":"reflectedNestedComments","type":"uint256"},{"internalType":"uint256","name":"point","type":"uint256"},{"internalType":"bool","name":"initialized","type":"bool"}],"stateMutability":"view","type":"function"}],"devdoc":{"methods":{}},"evm":{"assembly":"    /* \"ECAC.sol\":27:2128  contract UserContract {\r... */\n  mstore(0x40, 0x80)\n  callvalue\n    /* \"--CODEGEN--\":8:17   */\n  dup1\n    /* \"--CODEGEN--\":5:7   */\n  iszero\n  tag_1\n  jumpi\n    /* \"--CODEGEN--\":30:31   */\n  0x00\n    /* \"--CODEGEN--\":27:28   */\n  dup1\n    /* \"--CODEGEN--\":20:32   */\n  revert\n    /* \"--CODEGEN--\":5:7   */\ntag_1:\n    /* \"ECAC.sol\":27:2128  contract UserContract {\r... */\n  pop\n  dataSize(sub_0)\n  dup1\n  dataOffset(sub_0)\n  0x00\n  codecopy\n  0x00\n  return\nstop\n\nsub_0: assembly {\n        /* \"ECAC.sol\":27:2128  contract UserContract {\r... */\n      mstore(0x40, 0x80)\n      callvalue\n        /* \"--CODEGEN--\":8:17   */\n      dup1\n        /* \"--CODEGEN--\":5:7   */\n      iszero\n      tag_1\n      jumpi\n        /* \"--CODEGEN--\":30:31   */\n      0x00\n        /* \"--CODEGEN--\":27:28   */\n      dup1\n        /* \"--CODEGEN--\":20:32   */\n      revert\n        /* \"--CODEGEN--\":5:7   */\n    tag_1:\n        /* \"ECAC.sol\":27:2128  contract UserContract {\r... */\n      pop\n      jumpi(tag_2, lt(calldatasize, 0x04))\n      shr(0xe0, calldataload(0x00))\n      dup1\n      0x2993c042\n      eq\n      tag_3\n      jumpi\n      dup1\n      0x3436247b\n      eq\n      tag_4\n      jumpi\n      dup1\n      0x421b2d8b\n      eq\n      tag_5\n      jumpi\n      dup1\n      0x4f0cd27b\n      eq\n      tag_6\n      jumpi\n      dup1\n      0x6a24c435\n      eq\n      tag_7\n      jumpi\n      dup1\n      0xa87430ba\n      eq\n      tag_8\n      jumpi\n    tag_2:\n      0x00\n      dup1\n      revert\n        /* \"ECAC.sol\":1464:1952  function addPoint_nestedComments(address _userAddress, uint nestedComments) public {\r... */\n    tag_3:\n      tag_9\n      0x04\n      dup1\n      calldatasize\n      sub\n        /* \"--CODEGEN--\":13:15   */\n      0x40\n        /* \"--CODEGEN--\":8:11   */\n      dup2\n        /* \"--CODEGEN--\":5:16   */\n      lt\n        /* \"--CODEGEN--\":2:4   */\n      iszero\n      tag_10\n      jumpi\n        /* \"--CODEGEN--\":29:30   */\n      0x00\n        /* \"--CODEGEN--\":26:27   */\n      dup1\n        /* \"--CODEGEN--\":19:31   */\n      revert\n        /* \"--CODEGEN--\":2:4   */\n    tag_10:\n        /* \"ECAC.sol\":1464:1952  function addPoint_nestedComments(address _userAddress, uint nestedComments) public {\r... */\n      dup2\n      add\n      swap1\n      dup1\n      dup1\n      calldataload\n      0xffffffffffffffffffffffffffffffffffffffff\n      and\n      swap1\n      0x20\n      add\n      swap1\n      swap3\n      swap2\n      swap1\n      dup1\n      calldataload\n      swap1\n      0x20\n      add\n      swap1\n      swap3\n      swap2\n      swap1\n      pop\n      pop\n      pop\n      tag_11\n      jump\t// in\n    tag_9:\n      stop\n        /* \"ECAC.sol\":2012:2123  function refunds(address _userAddress, uint input) public {\r... */\n    tag_4:\n      tag_12\n      0x04\n      dup1\n      calldatasize\n      sub\n        /* \"--CODEGEN--\":13:15   */\n      0x40\n        /* \"--CODEGEN--\":8:11   */\n      dup2\n        /* \"--CODEGEN--\":5:16   */\n      lt\n        /* \"--CODEGEN--\":2:4   */\n      iszero\n      tag_13\n      jumpi\n        /* \"--CODEGEN--\":29:30   */\n      0x00\n        /* \"--CODEGEN--\":26:27   */\n      dup1\n        /* \"--CODEGEN--\":19:31   */\n      revert\n        /* \"--CODEGEN--\":2:4   */\n    tag_13:\n        /* \"ECAC.sol\":2012:2123  function refunds(address _userAddress, uint input) public {\r... */\n      dup2\n      add\n      swap1\n      dup1\n      dup1\n      calldataload\n      0xffffffffffffffffffffffffffffffffffffffff\n      and\n      swap1\n      0x20\n      add\n      swap1\n      swap3\n      swap2\n      swap1\n      dup1\n      calldataload\n      swap1\n      0x20\n      add\n      swap1\n      swap3\n      swap2\n      swap1\n      pop\n      pop\n      pop\n      tag_14\n      jump\t// in\n    tag_12:\n      stop\n        /* \"ECAC.sol\":644:789  function addUser(address _userAddress) public {\r... */\n    tag_5:\n      tag_15\n      0x04\n      dup1\n      calldatasize\n      sub\n        /* \"--CODEGEN--\":13:15   */\n      0x20\n        /* \"--CODEGEN--\":8:11   */\n      dup2\n        /* \"--CODEGEN--\":5:16   */\n      lt\n        /* \"--CODEGEN--\":2:4   */\n      iszero\n      tag_16\n      jumpi\n        /* \"--CODEGEN--\":29:30   */\n      0x00\n        /* \"--CODEGEN--\":26:27   */\n      dup1\n        /* \"--CODEGEN--\":19:31   */\n      revert\n        /* \"--CODEGEN--\":2:4   */\n    tag_16:\n        /* \"ECAC.sol\":644:789  function addUser(address _userAddress) public {\r... */\n      dup2\n      add\n      swap1\n      dup1\n      dup1\n      calldataload\n      0xffffffffffffffffffffffffffffffffffffffff\n      and\n      swap1\n      0x20\n      add\n      swap1\n      swap3\n      swap2\n      swap1\n      pop\n      pop\n      pop\n      tag_17\n      jump\t// in\n    tag_15:\n      stop\n        /* \"ECAC.sol\":818:936  function getCount(address _userAddress) public view returns (uint) {\r... */\n    tag_6:\n      tag_18\n      0x04\n      dup1\n      calldatasize\n      sub\n        /* \"--CODEGEN--\":13:15   */\n      0x20\n        /* \"--CODEGEN--\":8:11   */\n      dup2\n        /* \"--CODEGEN--\":5:16   */\n      lt\n        /* \"--CODEGEN--\":2:4   */\n      iszero\n      tag_19\n      jumpi\n        /* \"--CODEGEN--\":29:30   */\n      0x00\n        /* \"--CODEGEN--\":26:27   */\n      dup1\n        /* \"--CODEGEN--\":19:31   */\n      revert\n        /* \"--CODEGEN--\":2:4   */\n    tag_19:\n        /* \"ECAC.sol\":818:936  function getCount(address _userAddress) public view returns (uint) {\r... */\n      dup2\n      add\n      swap1\n      dup1\n      dup1\n      calldataload\n      0xffffffffffffffffffffffffffffffffffffffff\n      and\n      swap1\n      0x20\n      add\n      swap1\n      swap3\n      swap2\n      swap1\n      pop\n      pop\n      pop\n      tag_20\n      jump\t// in\n    tag_18:\n      mload(0x40)\n      dup1\n      dup3\n      dup2\n      mstore\n      0x20\n      add\n      swap2\n      pop\n      pop\n      mload(0x40)\n      dup1\n      swap2\n      sub\n      swap1\n      return\n        /* \"ECAC.sol\":1005:1398  function addPoint_likes(address _userAddress, uint likes) public {\r... */\n    tag_7:\n      tag_21\n      0x04\n      dup1\n      calldatasize\n      sub\n        /* \"--CODEGEN--\":13:15   */\n      0x40\n        /* \"--CODEGEN--\":8:11   */\n      dup2\n        /* \"--CODEGEN--\":5:16   */\n      lt\n        /* \"--CODEGEN--\":2:4   */\n      iszero\n      tag_22\n      jumpi\n        /* \"--CODEGEN--\":29:30   */\n      0x00\n        /* \"--CODEGEN--\":26:27   */\n      dup1\n        /* \"--CODEGEN--\":19:31   */\n      revert\n        /* \"--CODEGEN--\":2:4   */\n    tag_22:\n        /* \"ECAC.sol\":1005:1398  function addPoint_likes(address _userAddress, uint likes) public {\r... */\n      dup2\n      add\n      swap1\n      dup1\n      dup1\n      calldataload\n      0xffffffffffffffffffffffffffffffffffffffff\n      and\n      swap1\n      0x20\n      add\n      swap1\n      swap3\n      swap2\n      swap1\n      dup1\n      calldataload\n      swap1\n      0x20\n      add\n      swap1\n      swap3\n      swap2\n      swap1\n      pop\n      pop\n      pop\n      tag_23\n      jump\t// in\n    tag_21:\n      stop\n        /* \"ECAC.sol\":205:242  mapping(address => User) public users */\n    tag_8:\n      tag_24\n      0x04\n      dup1\n      calldatasize\n      sub\n        /* \"--CODEGEN--\":13:15   */\n      0x20\n        /* \"--CODEGEN--\":8:11   */\n      dup2\n        /* \"--CODEGEN--\":5:16   */\n      lt\n        /* \"--CODEGEN--\":2:4   */\n      iszero\n      tag_25\n      jumpi\n        /* \"--CODEGEN--\":29:30   */\n      0x00\n        /* \"--CODEGEN--\":26:27   */\n      dup1\n        /* \"--CODEGEN--\":19:31   */\n      revert\n        /* \"--CODEGEN--\":2:4   */\n    tag_25:\n        /* \"ECAC.sol\":205:242  mapping(address => User) public users */\n      dup2\n      add\n      swap1\n      dup1\n      dup1\n      calldataload\n      0xffffffffffffffffffffffffffffffffffffffff\n      and\n      swap1\n      0x20\n      add\n      swap1\n      swap3\n      swap2\n      swap1\n      pop\n      pop\n      pop\n      tag_26\n      jump\t// in\n    tag_24:\n      mload(0x40)\n      dup1\n      dup6\n      dup2\n      mstore\n      0x20\n      add\n      dup5\n      dup2\n      mstore\n      0x20\n      add\n      dup4\n      dup2\n      mstore\n      0x20\n      add\n      dup3\n      iszero\n      iszero\n      iszero\n      iszero\n      dup2\n      mstore\n      0x20\n      add\n      swap5\n      pop\n      pop\n      pop\n      pop\n      pop\n      mload(0x40)\n      dup1\n      swap2\n      sub\n      swap1\n      return\n        /* \"ECAC.sol\":1464:1952  function addPoint_nestedComments(address _userAddress, uint nestedComments) public {\r... */\n    tag_11:\n        /* \"ECAC.sol\":1558:1583  uint nestedCommentsTwenty */\n      0x00\n        /* \"ECAC.sol\":1603:1605  20 */\n      0x14\n        /* \"ECAC.sol\":1586:1600  nestedComments */\n      dup3\n        /* \"ECAC.sol\":1586:1605  nestedComments / 20 */\n      dup2\n      tag_28\n      jumpi\n      invalid\n    tag_28:\n      div\n        /* \"ECAC.sol\":1558:1605  uint nestedCommentsTwenty = nestedComments / 20 */\n      swap1\n      pop\n        /* \"ECAC.sol\":1643:1648  users */\n      0x00\n        /* \"ECAC.sol\":1643:1662  users[_userAddress] */\n      dup1\n        /* \"ECAC.sol\":1649:1661  _userAddress */\n      dup5\n        /* \"ECAC.sol\":1643:1662  users[_userAddress] */\n      0xffffffffffffffffffffffffffffffffffffffff\n      and\n      0xffffffffffffffffffffffffffffffffffffffff\n      and\n      dup2\n      mstore\n      0x20\n      add\n      swap1\n      dup2\n      mstore\n      0x20\n      add\n      0x00\n      keccak256\n        /* \"ECAC.sol\":1643:1686  users[_userAddress].reflectedNestedComments */\n      0x01\n      add\n      sload\n        /* \"ECAC.sol\":1620:1640  nestedCommentsTwenty */\n      dup2\n        /* \"ECAC.sol\":1620:1686  nestedCommentsTwenty > users[_userAddress].reflectedNestedComments */\n      gt\n        /* \"ECAC.sol\":1616:1945  if (nestedCommentsTwenty > users[_userAddress].reflectedNestedComments) {\r... */\n      iszero\n      tag_29\n      jumpi\n        /* \"ECAC.sol\":1801:1804  100 */\n      0x64\n        /* \"ECAC.sol\":1756:1761  users */\n      0x00\n        /* \"ECAC.sol\":1756:1775  users[_userAddress] */\n      dup1\n        /* \"ECAC.sol\":1762:1774  _userAddress */\n      dup6\n        /* \"ECAC.sol\":1756:1775  users[_userAddress] */\n      0xffffffffffffffffffffffffffffffffffffffff\n      and\n      0xffffffffffffffffffffffffffffffffffffffff\n      and\n      dup2\n      mstore\n      0x20\n      add\n      swap1\n      dup2\n      mstore\n      0x20\n      add\n      0x00\n      keccak256\n        /* \"ECAC.sol\":1756:1799  users[_userAddress].reflectedNestedComments */\n      0x01\n      add\n      sload\n        /* \"ECAC.sol\":1735:1755  nestedCommentsTwenty */\n      dup3\n        /* \"ECAC.sol\":1735:1799  nestedCommentsTwenty-users[_userAddress].reflectedNestedComments */\n      sub\n        /* \"ECAC.sol\":1734:1804  (nestedCommentsTwenty-users[_userAddress].reflectedNestedComments)*100 */\n      mul\n        /* \"ECAC.sol\":1703:1708  users */\n      0x00\n        /* \"ECAC.sol\":1703:1722  users[_userAddress] */\n      dup1\n        /* \"ECAC.sol\":1709:1721  _userAddress */\n      dup6\n        /* \"ECAC.sol\":1703:1722  users[_userAddress] */\n      0xffffffffffffffffffffffffffffffffffffffff\n      and\n      0xffffffffffffffffffffffffffffffffffffffff\n      and\n      dup2\n      mstore\n      0x20\n      add\n      swap1\n      dup2\n      mstore\n      0x20\n      add\n      0x00\n      keccak256\n        /* \"ECAC.sol\":1703:1728  users[_userAddress].point */\n      0x02\n      add\n      0x00\n        /* \"ECAC.sol\":1703:1805  users[_userAddress].point +=  ((nestedCommentsTwenty-users[_userAddress].reflectedNestedComments)*100) */\n      dup3\n      dup3\n      sload\n      add\n      swap3\n      pop\n      pop\n      dup2\n      swap1\n      sstore\n      pop\n        /* \"ECAC.sol\":1889:1894  users */\n      0x00\n        /* \"ECAC.sol\":1889:1908  users[_userAddress] */\n      dup1\n        /* \"ECAC.sol\":1895:1907  _userAddress */\n      dup5\n        /* \"ECAC.sol\":1889:1908  users[_userAddress] */\n      0xffffffffffffffffffffffffffffffffffffffff\n      and\n      0xffffffffffffffffffffffffffffffffffffffff\n      and\n      dup2\n      mstore\n      0x20\n      add\n      swap1\n      dup2\n      mstore\n      0x20\n      add\n      0x00\n      keccak256\n        /* \"ECAC.sol\":1889:1932  users[_userAddress].reflectedNestedComments */\n      0x01\n      add\n      sload\n        /* \"ECAC.sol\":1868:1888  nestedCommentsTwenty */\n      dup2\n        /* \"ECAC.sol\":1868:1932  nestedCommentsTwenty-users[_userAddress].reflectedNestedComments */\n      sub\n        /* \"ECAC.sol\":1820:1825  users */\n      0x00\n        /* \"ECAC.sol\":1820:1839  users[_userAddress] */\n      dup1\n        /* \"ECAC.sol\":1826:1838  _userAddress */\n      dup6\n        /* \"ECAC.sol\":1820:1839  users[_userAddress] */\n      0xffffffffffffffffffffffffffffffffffffffff\n      and\n      0xffffffffffffffffffffffffffffffffffffffff\n      and\n      dup2\n      mstore\n      0x20\n      add\n      swap1\n      dup2\n      mstore\n      0x20\n      add\n      0x00\n      keccak256\n        /* \"ECAC.sol\":1820:1863  users[_userAddress].reflectedNestedComments */\n      0x01\n      add\n      0x00\n        /* \"ECAC.sol\":1820:1933  users[_userAddress].reflectedNestedComments += (nestedCommentsTwenty-users[_userAddress].reflectedNestedComments) */\n      dup3\n      dup3\n      sload\n      add\n      swap3\n      pop\n      pop\n      dup2\n      swap1\n      sstore\n      pop\n        /* \"ECAC.sol\":1616:1945  if (nestedCommentsTwenty > users[_userAddress].reflectedNestedComments) {\r... */\n    tag_29:\n        /* \"ECAC.sol\":1464:1952  function addPoint_nestedComments(address _userAddress, uint nestedComments) public {\r... */\n      pop\n      pop\n      pop\n      jump\t// out\n        /* \"ECAC.sol\":2012:2123  function refunds(address _userAddress, uint input) public {\r... */\n    tag_14:\n        /* \"ECAC.sol\":2110:2115  input */\n      dup1\n        /* \"ECAC.sol\":2081:2086  users */\n      0x00\n        /* \"ECAC.sol\":2081:2100  users[_userAddress] */\n      dup1\n        /* \"ECAC.sol\":2087:2099  _userAddress */\n      dup5\n        /* \"ECAC.sol\":2081:2100  users[_userAddress] */\n      0xffffffffffffffffffffffffffffffffffffffff\n      and\n      0xffffffffffffffffffffffffffffffffffffffff\n      and\n      dup2\n      mstore\n      0x20\n      add\n      swap1\n      dup2\n      mstore\n      0x20\n      add\n      0x00\n      keccak256\n        /* \"ECAC.sol\":2081:2106  users[_userAddress].point */\n      0x02\n      add\n      0x00\n        /* \"ECAC.sol\":2081:2115  users[_userAddress].point -= input */\n      dup3\n      dup3\n      sload\n      sub\n      swap3\n      pop\n      pop\n      dup2\n      swap1\n      sstore\n      pop\n        /* \"ECAC.sol\":2012:2123  function refunds(address _userAddress, uint input) public {\r... */\n      pop\n      pop\n      jump\t// out\n        /* \"ECAC.sol\":644:789  function addUser(address _userAddress) public {\r... */\n    tag_17:\n        /* \"ECAC.sol\":706:711  users */\n      0x00\n        /* \"ECAC.sol\":706:725  users[_userAddress] */\n      dup1\n        /* \"ECAC.sol\":712:724  _userAddress */\n      dup3\n        /* \"ECAC.sol\":706:725  users[_userAddress] */\n      0xffffffffffffffffffffffffffffffffffffffff\n      and\n      0xffffffffffffffffffffffffffffffffffffffff\n      and\n      dup2\n      mstore\n      0x20\n      add\n      swap1\n      dup2\n      mstore\n      0x20\n      add\n      0x00\n      keccak256\n        /* \"ECAC.sol\":706:737  users[_userAddress].initialized */\n      0x03\n      add\n      0x00\n      swap1\n      sload\n      swap1\n      0x0100\n      exp\n      swap1\n      div\n      0xff\n      and\n        /* \"ECAC.sol\":701:782  if (!users[_userAddress].initialized) {\r... */\n      tag_32\n      jumpi\n        /* \"ECAC.sol\":754:770  initializeUser() */\n      tag_33\n        /* \"ECAC.sol\":754:768  initializeUser */\n      tag_34\n        /* \"ECAC.sol\":754:770  initializeUser() */\n      jump\t// in\n    tag_33:\n        /* \"ECAC.sol\":701:782  if (!users[_userAddress].initialized) {\r... */\n    tag_32:\n        /* \"ECAC.sol\":644:789  function addUser(address _userAddress) public {\r... */\n      pop\n      jump\t// out\n        /* \"ECAC.sol\":818:936  function getCount(address _userAddress) public view returns (uint) {\r... */\n    tag_20:\n        /* \"ECAC.sol\":879:883  uint */\n      0x00\n        /* \"ECAC.sol\":903:908  users */\n      dup1\n        /* \"ECAC.sol\":903:922  users[_userAddress] */\n      0x00\n        /* \"ECAC.sol\":909:921  _userAddress */\n      dup4\n        /* \"ECAC.sol\":903:922  users[_userAddress] */\n      0xffffffffffffffffffffffffffffffffffffffff\n      and\n      0xffffffffffffffffffffffffffffffffffffffff\n      and\n      dup2\n      mstore\n      0x20\n      add\n      swap1\n      dup2\n      mstore\n      0x20\n      add\n      0x00\n      keccak256\n        /* \"ECAC.sol\":903:928  users[_userAddress].point */\n      0x02\n      add\n      sload\n        /* \"ECAC.sol\":896:928  return users[_userAddress].point */\n      swap1\n      pop\n        /* \"ECAC.sol\":818:936  function getCount(address _userAddress) public view returns (uint) {\r... */\n      swap2\n      swap1\n      pop\n      jump\t// out\n        /* \"ECAC.sol\":1005:1398  function addPoint_likes(address _userAddress, uint likes) public {\r... */\n    tag_23:\n        /* \"ECAC.sol\":1081:1098  uint likesHundred */\n      0x00\n        /* \"ECAC.sol\":1109:1112  100 */\n      0x64\n        /* \"ECAC.sol\":1101:1106  likes */\n      dup3\n        /* \"ECAC.sol\":1101:1112  likes / 100 */\n      dup2\n      tag_37\n      jumpi\n      invalid\n    tag_37:\n      div\n        /* \"ECAC.sol\":1081:1112  uint likesHundred = likes / 100 */\n      swap1\n      pop\n        /* \"ECAC.sol\":1142:1147  users */\n      0x00\n        /* \"ECAC.sol\":1142:1161  users[_userAddress] */\n      dup1\n        /* \"ECAC.sol\":1148:1160  _userAddress */\n      dup5\n        /* \"ECAC.sol\":1142:1161  users[_userAddress] */\n      0xffffffffffffffffffffffffffffffffffffffff\n      and\n      0xffffffffffffffffffffffffffffffffffffffff\n      and\n      dup2\n      mstore\n      0x20\n      add\n      swap1\n      dup2\n      mstore\n      0x20\n      add\n      0x00\n      keccak256\n        /* \"ECAC.sol\":1142:1176  users[_userAddress].reflectedLikes */\n      0x00\n      add\n      sload\n        /* \"ECAC.sol\":1127:1139  likesHundred */\n      dup2\n        /* \"ECAC.sol\":1127:1176  likesHundred > users[_userAddress].reflectedLikes */\n      gt\n        /* \"ECAC.sol\":1123:1391  if (likesHundred > users[_userAddress].reflectedLikes) {\r... */\n      iszero\n      tag_38\n      jumpi\n        /* \"ECAC.sol\":1273:1276  100 */\n      0x64\n        /* \"ECAC.sol\":1237:1242  users */\n      0x00\n        /* \"ECAC.sol\":1237:1256  users[_userAddress] */\n      dup1\n        /* \"ECAC.sol\":1243:1255  _userAddress */\n      dup6\n        /* \"ECAC.sol\":1237:1256  users[_userAddress] */\n      0xffffffffffffffffffffffffffffffffffffffff\n      and\n      0xffffffffffffffffffffffffffffffffffffffff\n      and\n      dup2\n      mstore\n      0x20\n      add\n      swap1\n      dup2\n      mstore\n      0x20\n      add\n      0x00\n      keccak256\n        /* \"ECAC.sol\":1237:1271  users[_userAddress].reflectedLikes */\n      0x00\n      add\n      sload\n        /* \"ECAC.sol\":1224:1236  likesHundred */\n      dup3\n        /* \"ECAC.sol\":1224:1271  likesHundred-users[_userAddress].reflectedLikes */\n      sub\n        /* \"ECAC.sol\":1223:1276  (likesHundred-users[_userAddress].reflectedLikes)*100 */\n      mul\n        /* \"ECAC.sol\":1193:1198  users */\n      0x00\n        /* \"ECAC.sol\":1193:1212  users[_userAddress] */\n      dup1\n        /* \"ECAC.sol\":1199:1211  _userAddress */\n      dup6\n        /* \"ECAC.sol\":1193:1212  users[_userAddress] */\n      0xffffffffffffffffffffffffffffffffffffffff\n      and\n      0xffffffffffffffffffffffffffffffffffffffff\n      and\n      dup2\n      mstore\n      0x20\n      add\n      swap1\n      dup2\n      mstore\n      0x20\n      add\n      0x00\n      keccak256\n        /* \"ECAC.sol\":1193:1218  users[_userAddress].point */\n      0x02\n      add\n      0x00\n        /* \"ECAC.sol\":1193:1277  users[_userAddress].point += ((likesHundred-users[_userAddress].reflectedLikes)*100) */\n      dup3\n      dup3\n      sload\n      add\n      swap3\n      pop\n      pop\n      dup2\n      swap1\n      sstore\n      pop\n        /* \"ECAC.sol\":1344:1349  users */\n      0x00\n        /* \"ECAC.sol\":1344:1363  users[_userAddress] */\n      dup1\n        /* \"ECAC.sol\":1350:1362  _userAddress */\n      dup5\n        /* \"ECAC.sol\":1344:1363  users[_userAddress] */\n      0xffffffffffffffffffffffffffffffffffffffff\n      and\n      0xffffffffffffffffffffffffffffffffffffffff\n      and\n      dup2\n      mstore\n      0x20\n      add\n      swap1\n      dup2\n      mstore\n      0x20\n      add\n      0x00\n      keccak256\n        /* \"ECAC.sol\":1344:1378  users[_userAddress].reflectedLikes */\n      0x00\n      add\n      sload\n        /* \"ECAC.sol\":1331:1343  likesHundred */\n      dup2\n        /* \"ECAC.sol\":1331:1378  likesHundred-users[_userAddress].reflectedLikes */\n      sub\n        /* \"ECAC.sol\":1292:1297  users */\n      0x00\n        /* \"ECAC.sol\":1292:1311  users[_userAddress] */\n      dup1\n        /* \"ECAC.sol\":1298:1310  _userAddress */\n      dup6\n        /* \"ECAC.sol\":1292:1311  users[_userAddress] */\n      0xffffffffffffffffffffffffffffffffffffffff\n      and\n      0xffffffffffffffffffffffffffffffffffffffff\n      and\n      dup2\n      mstore\n      0x20\n      add\n      swap1\n      dup2\n      mstore\n      0x20\n      add\n      0x00\n      keccak256\n        /* \"ECAC.sol\":1292:1326  users[_userAddress].reflectedLikes */\n      0x00\n      add\n      0x00\n        /* \"ECAC.sol\":1292:1379  users[_userAddress].reflectedLikes += (likesHundred-users[_userAddress].reflectedLikes) */\n      dup3\n      dup3\n      sload\n      add\n      swap3\n      pop\n      pop\n      dup2\n      swap1\n      sstore\n      pop\n        /* \"ECAC.sol\":1123:1391  if (likesHundred > users[_userAddress].reflectedLikes) {\r... */\n    tag_38:\n        /* \"ECAC.sol\":1005:1398  function addPoint_likes(address _userAddress, uint likes) public {\r... */\n      pop\n      pop\n      pop\n      jump\t// out\n        /* \"ECAC.sol\":205:242  mapping(address => User) public users */\n    tag_26:\n      mstore(0x20, 0x00)\n      dup1\n      0x00\n      mstore\n      keccak256(0x00, 0x40)\n      0x00\n      swap2\n      pop\n      swap1\n      pop\n      dup1\n      0x00\n      add\n      sload\n      swap1\n      dup1\n      0x01\n      add\n      sload\n      swap1\n      dup1\n      0x02\n      add\n      sload\n      swap1\n      dup1\n      0x03\n      add\n      0x00\n      swap1\n      sload\n      swap1\n      0x0100\n      exp\n      swap1\n      div\n      0xff\n      and\n      swap1\n      pop\n      dup5\n      jump\t// out\n        /* \"ECAC.sol\":378:636  function initializeUser() private {\r... */\n    tag_34:\n        /* \"ECAC.sol\":423:439  User memory user */\n      tag_40\n      tag_41\n      jump\t// in\n    tag_40:\n        /* \"ECAC.sol\":442:587  User({\r... */\n      mload(0x40)\n      dup1\n      0x80\n      add\n      0x40\n      mstore\n      dup1\n        /* \"ECAC.sol\":478:479  0 */\n      0x00\n        /* \"ECAC.sol\":442:587  User({\r... */\n      dup2\n      mstore\n      0x20\n      add\n        /* \"ECAC.sol\":519:520  0 */\n      0x00\n        /* \"ECAC.sol\":442:587  User({\r... */\n      dup2\n      mstore\n      0x20\n      add\n        /* \"ECAC.sol\":542:543  0 */\n      0x00\n        /* \"ECAC.sol\":442:587  User({\r... */\n      dup2\n      mstore\n      0x20\n      add\n        /* \"ECAC.sol\":571:575  true */\n      0x01\n        /* \"ECAC.sol\":442:587  User({\r... */\n      iszero\n      iszero\n      dup2\n      mstore\n      pop\n        /* \"ECAC.sol\":423:587  User memory user = User({\r... */\n      swap1\n      pop\n        /* \"ECAC.sol\":624:628  user */\n      dup1\n        /* \"ECAC.sol\":604:609  users */\n      0x00\n        /* \"ECAC.sol\":604:621  users[msg.sender] */\n      dup1\n        /* \"ECAC.sol\":610:620  msg.sender */\n      caller\n        /* \"ECAC.sol\":604:621  users[msg.sender] */\n      0xffffffffffffffffffffffffffffffffffffffff\n      and\n      0xffffffffffffffffffffffffffffffffffffffff\n      and\n      dup2\n      mstore\n      0x20\n      add\n      swap1\n      dup2\n      mstore\n      0x20\n      add\n      0x00\n      keccak256\n        /* \"ECAC.sol\":604:628  users[msg.sender] = user */\n      0x00\n      dup3\n      add\n      mload\n      dup2\n      0x00\n      add\n      sstore\n      0x20\n      dup3\n      add\n      mload\n      dup2\n      0x01\n      add\n      sstore\n      0x40\n      dup3\n      add\n      mload\n      dup2\n      0x02\n      add\n      sstore\n      0x60\n      dup3\n      add\n      mload\n      dup2\n      0x03\n      add\n      exp(0x0100, 0x00)\n      dup2\n      sload\n      dup2\n      0xff\n      mul\n      not\n      and\n      swap1\n      dup4\n      iszero\n      iszero\n      mul\n      or\n      swap1\n      sstore\n      pop\n      swap1\n      pop\n      pop\n        /* \"ECAC.sol\":378:636  function initializeUser() private {\r... */\n      pop\n      jump\t// out\n        /* \"ECAC.sol\":27:2128  contract UserContract {\r... */\n    tag_41:\n      mload(0x40)\n      dup1\n      0x80\n      add\n      0x40\n      mstore\n      dup1\n      0x00\n      dup2\n      mstore\n      0x20\n      add\n      0x00\n      dup2\n      mstore\n      0x20\n      add\n      0x00\n      dup2\n      mstore\n      0x20\n      add\n      iszero(iszero(0x00))\n      dup2\n      mstore\n      pop\n      swap1\n      jump\t// out\n\n    auxdata: 0xa2646970667358221220eff78177a234e5caf5eaa4c6ba21f4c9f22b0d8aff984f8423c6056b2a5ec5b764736f6c63430006000033\n}\n","bytecode":{"linkReferences":{},"object":"608060405234801561001057600080fd5b506107b6806100206000396000f3fe608060405234801561001057600080fd5b50600436106100625760003560e01c80632993c042146100675780633436247b146100b5578063421b2d8b146101035780634f0cd27b146101475780636a24c4351461019f578063a87430ba146101ed575b600080fd5b6100b36004803603604081101561007d57600080fd5b81019080803573ffffffffffffffffffffffffffffffffffffffff1690602001909291908035906020019092919050505061025e565b005b610101600480360360408110156100cb57600080fd5b81019080803573ffffffffffffffffffffffffffffffffffffffff169060200190929190803590602001909291905050506103e3565b005b6101456004803603602081101561011957600080fd5b81019080803573ffffffffffffffffffffffffffffffffffffffff169060200190929190505050610436565b005b6101896004803603602081101561015d57600080fd5b81019080803573ffffffffffffffffffffffffffffffffffffffff169060200190929190505050610495565b6040518082815260200191505060405180910390f35b6101eb600480360360408110156101b557600080fd5b81019080803573ffffffffffffffffffffffffffffffffffffffff169060200190929190803590602001909291905050506104e0565b005b61022f6004803603602081101561020357600080fd5b81019080803573ffffffffffffffffffffffffffffffffffffffff169060200190929190505050610665565b604051808581526020018481526020018381526020018215151515815260200194505050505060405180910390f35b60006014828161026a57fe5b0490506000808473ffffffffffffffffffffffffffffffffffffffff1673ffffffffffffffffffffffffffffffffffffffff168152602001908152602001600020600101548111156103de5760646000808573ffffffffffffffffffffffffffffffffffffffff1673ffffffffffffffffffffffffffffffffffffffff168152602001908152602001600020600101548203026000808573ffffffffffffffffffffffffffffffffffffffff1673ffffffffffffffffffffffffffffffffffffffff168152602001908152602001600020600201600082825401925050819055506000808473ffffffffffffffffffffffffffffffffffffffff1673ffffffffffffffffffffffffffffffffffffffff1681526020019081526020016000206001015481036000808573ffffffffffffffffffffffffffffffffffffffff1673ffffffffffffffffffffffffffffffffffffffff168152602001908152602001600020600101600082825401925050819055505b505050565b806000808473ffffffffffffffffffffffffffffffffffffffff1673ffffffffffffffffffffffffffffffffffffffff168152602001908152602001600020600201600082825403925050819055505050565b6000808273ffffffffffffffffffffffffffffffffffffffff1673ffffffffffffffffffffffffffffffffffffffff16815260200190815260200160002060030160009054906101000a900460ff16610492576104916106a2565b5b50565b60008060008373ffffffffffffffffffffffffffffffffffffffff1673ffffffffffffffffffffffffffffffffffffffff168152602001908152602001600020600201549050919050565b6000606482816104ec57fe5b0490506000808473ffffffffffffffffffffffffffffffffffffffff1673ffffffffffffffffffffffffffffffffffffffff168152602001908152602001600020600001548111156106605760646000808573ffffffffffffffffffffffffffffffffffffffff1673ffffffffffffffffffffffffffffffffffffffff168152602001908152602001600020600001548203026000808573ffffffffffffffffffffffffffffffffffffffff1673ffffffffffffffffffffffffffffffffffffffff168152602001908152602001600020600201600082825401925050819055506000808473ffffffffffffffffffffffffffffffffffffffff1673ffffffffffffffffffffffffffffffffffffffff1681526020019081526020016000206000015481036000808573ffffffffffffffffffffffffffffffffffffffff1673ffffffffffffffffffffffffffffffffffffffff168152602001908152602001600020600001600082825401925050819055505b505050565b60006020528060005260406000206000915090508060000154908060010154908060020154908060030160009054906101000a900460ff16905084565b6106aa610756565b6040518060800160405280600081526020016000815260200160008152602001600115158152509050806000803373ffffffffffffffffffffffffffffffffffffffff1673ffffffffffffffffffffffffffffffffffffffff16815260200190815260200160002060008201518160000155602082015181600101556040820151816002015560608201518160030160006101000a81548160ff02191690831515021790555090505050565b6040518060800160405280600081526020016000815260200160008152602001600015158152509056fea2646970667358221220eff78177a234e5caf5eaa4c6ba21f4c9f22b0d8aff984f8423c6056b2a5ec5b764736f6c63430006000033","opcodes":"PUSH1 0x80 PUSH1 0x40 MSTORE CALLVALUE DUP1 ISZERO PUSH2 0x10 JUMPI PUSH1 0x0 DUP1 REVERT JUMPDEST POP PUSH2 0x7B6 DUP1 PUSH2 0x20 PUSH1 0x0 CODECOPY PUSH1 0x0 RETURN INVALID PUSH1 0x80 PUSH1 0x40 MSTORE CALLVALUE DUP1 ISZERO PUSH2 0x10 JUMPI PUSH1 0x0 DUP1 REVERT JUMPDEST POP PUSH1 0x4 CALLDATASIZE LT PUSH2 0x62 JUMPI PUSH1 0x0 CALLDATALOAD PUSH1 0xE0 SHR DUP1 PUSH4 0x2993C042 EQ PUSH2 0x67 JUMPI DUP1 PUSH4 0x3436247B EQ PUSH2 0xB5 JUMPI DUP1 PUSH4 0x421B2D8B EQ PUSH2 0x103 JUMPI DUP1 PUSH4 0x4F0CD27B EQ PUSH2 0x147 JUMPI DUP1 PUSH4 0x6A24C435 EQ PUSH2 0x19F JUMPI DUP1 PUSH4 0xA87430BA EQ PUSH2 0x1ED JUMPI JUMPDEST PUSH1 0x0 DUP1 REVERT JUMPDEST PUSH2 0xB3 PUSH1 0x4 DUP1 CALLDATASIZE SUB PUSH1 0x40 DUP2 LT ISZERO PUSH2 0x7D JUMPI PUSH1 0x0 DUP1 REVERT JUMPDEST DUP2 ADD SWAP1 DUP1 DUP1 CALLDATALOAD PUSH20 0xFFFFFFFFFFFFFFFFFFFFFFFFFFFFFFFFFFFFFFFF AND SWAP1 PUSH1 0x20 ADD SWAP1 SWAP3 SWAP2 SWAP1 DUP1 CALLDATALOAD SWAP1 PUSH1 0x20 ADD SWAP1 SWAP3 SWAP2 SWAP1 POP POP POP PUSH2 0x25E JUMP JUMPDEST STOP JUMPDEST PUSH2 0x101 PUSH1 0x4 DUP1 CALLDATASIZE SUB PUSH1 0x40 DUP2 LT ISZERO PUSH2 0xCB JUMPI PUSH1 0x0 DUP1 REVERT JUMPDEST DUP2 ADD SWAP1 DUP1 DUP1 CALLDATALOAD PUSH20 0xFFFFFFFFFFFFFFFFFFFFFFFFFFFFFFFFFFFFFFFF AND SWAP1 PUSH1 0x20 ADD SWAP1 SWAP3 SWAP2 SWAP1 DUP1 CALLDATALOAD SWAP1 PUSH1 0x20 ADD SWAP1 SWAP3 SWAP2 SWAP1 POP POP POP PUSH2 0x3E3 JUMP JUMPDEST STOP JUMPDEST PUSH2 0x145 PUSH1 0x4 DUP1 CALLDATASIZE SUB PUSH1 0x20 DUP2 LT ISZERO PUSH2 0x119 JUMPI PUSH1 0x0 DUP1 REVERT JUMPDEST DUP2 ADD SWAP1 DUP1 DUP1 CALLDATALOAD PUSH20 0xFFFFFFFFFFFFFFFFFFFFFFFFFFFFFFFFFFFFFFFF AND SWAP1 PUSH1 0x20 ADD SWAP1 SWAP3 SWAP2 SWAP1 POP POP POP PUSH2 0x436 JUMP JUMPDEST STOP JUMPDEST PUSH2 0x189 PUSH1 0x4 DUP1 CALLDATASIZE SUB PUSH1 0x20 DUP2 LT ISZERO PUSH2 0x15D JUMPI PUSH1 0x0 DUP1 REVERT JUMPDEST DUP2 ADD SWAP1 DUP1 DUP1 CALLDATALOAD PUSH20 0xFFFFFFFFFFFFFFFFFFFFFFFFFFFFFFFFFFFFFFFF AND SWAP1 PUSH1 0x20 ADD SWAP1 SWAP3 SWAP2 SWAP1 POP POP POP PUSH2 0x495 JUMP JUMPDEST PUSH1 0x40 MLOAD DUP1 DUP3 DUP2 MSTORE PUSH1 0x20 ADD SWAP2 POP POP PUSH1 0x40 MLOAD DUP1 SWAP2 SUB SWAP1 RETURN JUMPDEST PUSH2 0x1EB PUSH1 0x4 DUP1 CALLDATASIZE SUB PUSH1 0x40 DUP2 LT ISZERO PUSH2 0x1B5 JUMPI PUSH1 0x0 DUP1 REVERT JUMPDEST DUP2 ADD SWAP1 DUP1 DUP1 CALLDATALOAD PUSH20 0xFFFFFFFFFFFFFFFFFFFFFFFFFFFFFFFFFFFFFFFF AND SWAP1 PUSH1 0x20 ADD SWAP1 SWAP3 SWAP2 SWAP1 DUP1 CALLDATALOAD SWAP1 PUSH1 0x20 ADD SWAP1 SWAP3 SWAP2 SWAP1 POP POP POP PUSH2 0x4E0 JUMP JUMPDEST STOP JUMPDEST PUSH2 0x22F PUSH1 0x4 DUP1 CALLDATASIZE SUB PUSH1 0x20 DUP2 LT ISZERO PUSH2 0x203 JUMPI PUSH1 0x0 DUP1 REVERT JUMPDEST DUP2 ADD SWAP1 DUP1 DUP1 CALLDATALOAD PUSH20 0xFFFFFFFFFFFFFFFFFFFFFFFFFFFFFFFFFFFFFFFF AND SWAP1 PUSH1 0x20 ADD SWAP1 SWAP3 SWAP2 SWAP1 POP POP POP PUSH2 0x665 JUMP JUMPDEST PUSH1 0x40 MLOAD DUP1 DUP6 DUP2 MSTORE PUSH1 0x20 ADD DUP5 DUP2 MSTORE PUSH1 0x20 ADD DUP4 DUP2 MSTORE PUSH1 0x20 ADD DUP3 ISZERO ISZERO ISZERO ISZERO DUP2 MSTORE PUSH1 0x20 ADD SWAP5 POP POP POP POP POP PUSH1 0x40 MLOAD DUP1 SWAP2 SUB SWAP1 RETURN JUMPDEST PUSH1 0x0 PUSH1 0x14 DUP3 DUP2 PUSH2 0x26A JUMPI INVALID JUMPDEST DIV SWAP1 POP PUSH1 0x0 DUP1 DUP5 PUSH20 0xFFFFFFFFFFFFFFFFFFFFFFFFFFFFFFFFFFFFFFFF AND PUSH20 0xFFFFFFFFFFFFFFFFFFFFFFFFFFFFFFFFFFFFFFFF AND DUP2 MSTORE PUSH1 0x20 ADD SWAP1 DUP2 MSTORE PUSH1 0x20 ADD PUSH1 0x0 KECCAK256 PUSH1 0x1 ADD SLOAD DUP2 GT ISZERO PUSH2 0x3DE JUMPI PUSH1 0x64 PUSH1 0x0 DUP1 DUP6 PUSH20 0xFFFFFFFFFFFFFFFFFFFFFFFFFFFFFFFFFFFFFFFF AND PUSH20 0xFFFFFFFFFFFFFFFFFFFFFFFFFFFFFFFFFFFFFFFF AND DUP2 MSTORE PUSH1 0x20 ADD SWAP1 DUP2 MSTORE PUSH1 0x20 ADD PUSH1 0x0 KECCAK256 PUSH1 0x1 ADD SLOAD DUP3 SUB MUL PUSH1 0x0 DUP1 DUP6 PUSH20 0xFFFFFFFFFFFFFFFFFFFFFFFFFFFFFFFFFFFFFFFF AND PUSH20 0xFFFFFFFFFFFFFFFFFFFFFFFFFFFFFFFFFFFFFFFF AND DUP2 MSTORE PUSH1 0x20 ADD SWAP1 DUP2 MSTORE PUSH1 0x20 ADD PUSH1 0x0 KECCAK256 PUSH1 0x2 ADD PUSH1 0x0 DUP3 DUP3 SLOAD ADD SWAP3 POP POP DUP2 SWAP1 SSTORE POP PUSH1 0x0 DUP1 DUP5 PUSH20 0xFFFFFFFFFFFFFFFFFFFFFFFFFFFFFFFFFFFFFFFF AND PUSH20 0xFFFFFFFFFFFFFFFFFFFFFFFFFFFFFFFFFFFFFFFF AND DUP2 MSTORE PUSH1 0x20 ADD SWAP1 DUP2 MSTORE PUSH1 0x20 ADD PUSH1 0x0 KECCAK256 PUSH1 0x1 ADD SLOAD DUP2 SUB PUSH1 0x0 DUP1 DUP6 PUSH20 0xFFFFFFFFFFFFFFFFFFFFFFFFFFFFFFFFFFFFFFFF AND PUSH20 0xFFFFFFFFFFFFFFFFFFFFFFFFFFFFFFFFFFFFFFFF AND DUP2 MSTORE PUSH1 0x20 ADD SWAP1 DUP2 MSTORE PUSH1 0x20 ADD PUSH1 0x0 KECCAK256 PUSH1 0x1 ADD PUSH1 0x0 DUP3 DUP3 SLOAD ADD SWAP3 POP POP DUP2 SWAP1 SSTORE POP JUMPDEST POP POP POP JUMP JUMPDEST DUP1 PUSH1 0x0 DUP1 DUP5 PUSH20 0xFFFFFFFFFFFFFFFFFFFFFFFFFFFFFFFFFFFFFFFF AND PUSH20 0xFFFFFFFFFFFFFFFFFFFFFFFFFFFFFFFFFFFFFFFF AND DUP2 MSTORE PUSH1 0x20 ADD SWAP1 DUP2 MSTORE PUSH1 0x20 ADD PUSH1 0x0 KECCAK256 PUSH1 0x2 ADD PUSH1 0x0 DUP3 DUP3 SLOAD SUB SWAP3 POP POP DUP2 SWAP1 SSTORE POP POP POP JUMP JUMPDEST PUSH1 0x0 DUP1 DUP3 PUSH20 0xFFFFFFFFFFFFFFFFFFFFFFFFFFFFFFFFFFFFFFFF AND PUSH20 0xFFFFFFFFFFFFFFFFFFFFFFFFFFFFFFFFFFFFFFFF AND DUP2 MSTORE PUSH1 0x20 ADD SWAP1 DUP2 MSTORE PUSH1 0x20 ADD PUSH1 0x0 KECCAK256 PUSH1 0x3 ADD PUSH1 0x0 SWAP1 SLOAD SWAP1 PUSH2 0x100 EXP SWAP1 DIV PUSH1 0xFF AND PUSH2 0x492 JUMPI PUSH2 0x491 PUSH2 0x6A2 JUMP JUMPDEST JUMPDEST POP JUMP JUMPDEST PUSH1 0x0 DUP1 PUSH1 0x0 DUP4 PUSH20 0xFFFFFFFFFFFFFFFFFFFFFFFFFFFFFFFFFFFFFFFF AND PUSH20 0xFFFFFFFFFFFFFFFFFFFFFFFFFFFFFFFFFFFFFFFF AND DUP2 MSTORE PUSH1 0x20 ADD SWAP1 DUP2 MSTORE PUSH1 0x20 ADD PUSH1 0x0 KECCAK256 PUSH1 0x2 ADD SLOAD SWAP1 POP SWAP2 SWAP1 POP JUMP JUMPDEST PUSH1 0x0 PUSH1 0x64 DUP3 DUP2 PUSH2 0x4EC JUMPI INVALID JUMPDEST DIV SWAP1 POP PUSH1 0x0 DUP1 DUP5 PUSH20 0xFFFFFFFFFFFFFFFFFFFFFFFFFFFFFFFFFFFFFFFF AND PUSH20 0xFFFFFFFFFFFFFFFFFFFFFFFFFFFFFFFFFFFFFFFF AND DUP2 MSTORE PUSH1 0x20 ADD SWAP1 DUP2 MSTORE PUSH1 0x20 ADD PUSH1 0x0 KECCAK256 PUSH1 0x0 ADD SLOAD DUP2 GT ISZERO PUSH2 0x660 JUMPI PUSH1 0x64 PUSH1 0x0 DUP1 DUP6 PUSH20 0xFFFFFFFFFFFFFFFFFFFFFFFFFFFFFFFFFFFFFFFF AND PUSH20 0xFFFFFFFFFFFFFFFFFFFFFFFFFFFFFFFFFFFFFFFF AND DUP2 MSTORE PUSH1 0x20 ADD SWAP1 DUP2 MSTORE PUSH1 0x20 ADD PUSH1 0x0 KECCAK256 PUSH1 0x0 ADD SLOAD DUP3 SUB MUL PUSH1 0x0 DUP1 DUP6 PUSH20 0xFFFFFFFFFFFFFFFFFFFFFFFFFFFFFFFFFFFFFFFF AND PUSH20 0xFFFFFFFFFFFFFFFFFFFFFFFFFFFFFFFFFFFFFFFF AND DUP2 MSTORE PUSH1 0x20 ADD SWAP1 DUP2 MSTORE PUSH1 0x20 ADD PUSH1 0x0 KECCAK256 PUSH1 0x2 ADD PUSH1 0x0 DUP3 DUP3 SLOAD ADD SWAP3 POP POP DUP2 SWAP1 SSTORE POP PUSH1 0x0 DUP1 DUP5 PUSH20 0xFFFFFFFFFFFFFFFFFFFFFFFFFFFFFFFFFFFFFFFF AND PUSH20 0xFFFFFFFFFFFFFFFFFFFFFFFFFFFFFFFFFFFFFFFF AND DUP2 MSTORE PUSH1 0x20 ADD SWAP1 DUP2 MSTORE PUSH1 0x20 ADD PUSH1 0x0 KECCAK256 PUSH1 0x0 ADD SLOAD DUP2 SUB PUSH1 0x0 DUP1 DUP6 PUSH20 0xFFFFFFFFFFFFFFFFFFFFFFFFFFFFFFFFFFFFFFFF AND PUSH20 0xFFFFFFFFFFFFFFFFFFFFFFFFFFFFFFFFFFFFFFFF AND DUP2 MSTORE PUSH1 0x20 ADD SWAP1 DUP2 MSTORE PUSH1 0x20 ADD PUSH1 0x0 KECCAK256 PUSH1 0x0 ADD PUSH1 0x0 DUP3 DUP3 SLOAD ADD SWAP3 POP POP DUP2 SWAP1 SSTORE POP JUMPDEST POP POP POP JUMP JUMPDEST PUSH1 0x0 PUSH1 0x20 MSTORE DUP1 PUSH1 0x0 MSTORE PUSH1 0x40 PUSH1 0x0 KECCAK256 PUSH1 0x0 SWAP2 POP SWAP1 POP DUP1 PUSH1 0x0 ADD SLOAD SWAP1 DUP1 PUSH1 0x1 ADD SLOAD SWAP1 DUP1 PUSH1 0x2 ADD SLOAD SWAP1 DUP1 PUSH1 0x3 ADD PUSH1 0x0 SWAP1 SLOAD SWAP1 PUSH2 0x100 EXP SWAP1 DIV PUSH1 0xFF AND SWAP1 POP DUP5 JUMP JUMPDEST PUSH2 0x6AA PUSH2 0x756 JUMP JUMPDEST PUSH1 0x40 MLOAD DUP1 PUSH1 0x80 ADD PUSH1 0x40 MSTORE DUP1 PUSH1 0x0 DUP2 MSTORE PUSH1 0x20 ADD PUSH1 0x0 DUP2 MSTORE PUSH1 0x20 ADD PUSH1 0x0 DUP2 MSTORE PUSH1 0x20 ADD PUSH1 0x1 ISZERO ISZERO DUP2 MSTORE POP SWAP1 POP DUP1 PUSH1 0x0 DUP1 CALLER PUSH20 0xFFFFFFFFFFFFFFFFFFFFFFFFFFFFFFFFFFFFFFFF AND PUSH20 0xFFFFFFFFFFFFFFFFFFFFFFFFFFFFFFFFFFFFFFFF AND DUP2 MSTORE PUSH1 0x20 ADD SWAP1 DUP2 MSTORE PUSH1 0x20 ADD PUSH1 0x0 KECCAK256 PUSH1 0x0 DUP3 ADD MLOAD DUP2 PUSH1 0x0 ADD SSTORE PUSH1 0x20 DUP3 ADD MLOAD DUP2 PUSH1 0x1 ADD SSTORE PUSH1 0x40 DUP3 ADD MLOAD DUP2 PUSH1 0x2 ADD SSTORE PUSH1 0x60 DUP3 ADD MLOAD DUP2 PUSH1 0x3 ADD PUSH1 0x0 PUSH2 0x100 EXP DUP2 SLOAD DUP2 PUSH1 0xFF MUL NOT AND SWAP1 DUP4 ISZERO ISZERO MUL OR SWAP1 SSTORE POP SWAP1 POP POP POP JUMP JUMPDEST PUSH1 0x40 MLOAD DUP1 PUSH1 0x80 ADD PUSH1 0x40 MSTORE DUP1 PUSH1 0x0 DUP2 MSTORE PUSH1 0x20 ADD PUSH1 0x0 DUP2 MSTORE PUSH1 0x20 ADD PUSH1 0x0 DUP2 MSTORE PUSH1 0x20 ADD PUSH1 0x0 ISZERO ISZERO DUP2 MSTORE POP SWAP1 JUMP INVALID LOG2 PUSH5 0x6970667358 0x22 SLT KECCAK256 0xEF 0xF7 DUP2 PUSH24 0xA234E5CAF5EAA4C6BA21F4C9F22B0D8AFF984F8423C6056B 0x2A 0x5E 0xC5 0xB7 PUSH5 0x736F6C6343 STOP MOD STOP STOP CALLER "},"gasEstimates":{"creation":{"codeDepositCost":"394800","executionCost":"430","totalCost":"395230"},"external":{"addPoint_likes(address,uint256)":"44959","addPoint_nestedComments(address,uint256)":"44871","addUser(address)":"37509","getCount(address)":"1246","refunds(address,uint256)":"21192","users(address)":"3815"},"internal":{"initializeUser()":"infinite"}},"methodIdentifiers":{"addPoint_likes(address,uint256)":"6a24c435","addPoint_nestedComments(address,uint256)":"2993c042","addUser(address)":"421b2d8b","getCount(address)":"4f0cd27b","refunds(address,uint256)":"3436247b","users(address)":"a87430ba"}},"storageLayout":{"storage":[{"astId":14,"contract":"ECAC.sol:UserContract","label":"users","offset":0,"slot":"0","type":"t_mapping(t_address,t_struct(User)10_storage)"}],"types":{"t_address":{"encoding":"inplace","label":"address","numberOfBytes":"20"},"t_bool":{"encoding":"inplace","label":"bool","numberOfBytes":"1"},"t_mapping(t_address,t_struct(User)10_storage)":{"encoding":"mapping","key":"t_address","label":"mapping(address => struct UserContract.User)","numberOfBytes":"32","value":"t_struct(User)10_storage"},"t_struct(User)10_storage":{"encoding":"inplace","label":"struct UserContract.User","members":[{"astId":3,"contract":"ECAC.sol:UserContract","label":"reflectedLikes","offset":0,"slot":"0","type":"t_uint256"},{"astId":5,"contract":"ECAC.sol:UserContract","label":"reflectedNestedComments","offset":0,"slot":"1","type":"t_uint256"},{"astId":7,"contract":"ECAC.sol:UserContract","label":"point","offset":0,"slot":"2","type":"t_uint256"},{"astId":9,"contract":"ECAC.sol:UserContract","label":"initialized","offset":0,"slot":"3","type":"t_bool"}],"numberOfBytes":"128"},"t_uint256":{"encoding":"inplace","label":"uint256","numberOfBytes":"32"}}},"userdoc":{"methods":{}}}