{"abi":[{"inputs":[{"internalType":"address","name":"_userAddress","type":"address"},{"internalType":"uint256","name":"likes","type":"uint256"}],"name":"addPoint_likes","outputs":[],"stateMutability":"nonpayable","type":"function"},{"inputs":[{"internalType":"address","name":"_userAddress","type":"address"},{"internalType":"uint256","name":"nestedComments","type":"uint256"}],"name":"addPoint_nestedComments","outputs":[],"stateMutability":"nonpayable","type":"function"},{"inputs":[],"name":"addUser","outputs":[],"stateMutability":"nonpayable","type":"function"},{"inputs":[{"internalType":"address","name":"_userAddress","type":"address"}],"name":"getCount","outputs":[{"internalType":"uint256","name":"","type":"uint256"}],"stateMutability":"view","type":"function"},{"inputs":[{"internalType":"address","name":"_userAddress","type":"address"},{"internalType":"uint256","name":"input","type":"uint256"}],"name":"refunds","outputs":[],"stateMutability":"nonpayable","type":"function"},{"inputs":[{"internalType":"address","name":"","type":"address"}],"name":"users","outputs":[{"internalType":"uint256","name":"reflectedLikes","type":"uint256"},{"internalType":"uint256","name":"reflectedNestedComments","type":"uint256"},{"internalType":"uint256","name":"point","type":"uint256"},{"internalType":"bool","name":"initialized","type":"bool"}],"stateMutability":"view","type":"function"}],"devdoc":{"methods":{}},"evm":{"assembly":"    /* \"ECAC.sol\":27:2106  contract UserContract {\r... */\n  mstore(0x40, 0x80)\n  callvalue\n    /* \"--CODEGEN--\":8:17   */\n  dup1\n    /* \"--CODEGEN--\":5:7   */\n  iszero\n  tag_1\n  jumpi\n    /* \"--CODEGEN--\":30:31   */\n  0x00\n    /* \"--CODEGEN--\":27:28   */\n  dup1\n    /* \"--CODEGEN--\":20:32   */\n  revert\n    /* \"--CODEGEN--\":5:7   */\ntag_1:\n    /* \"ECAC.sol\":27:2106  contract UserContract {\r... */\n  pop\n  dataSize(sub_0)\n  dup1\n  dataOffset(sub_0)\n  0x00\n  codecopy\n  0x00\n  return\nstop\n\nsub_0: assembly {\n        /* \"ECAC.sol\":27:2106  contract UserContract {\r... */\n      mstore(0x40, 0x80)\n      callvalue\n        /* \"--CODEGEN--\":8:17   */\n      dup1\n        /* \"--CODEGEN--\":5:7   */\n      iszero\n      tag_1\n      jumpi\n        /* \"--CODEGEN--\":30:31   */\n      0x00\n        /* \"--CODEGEN--\":27:28   */\n      dup1\n        /* \"--CODEGEN--\":20:32   */\n      revert\n        /* \"--CODEGEN--\":5:7   */\n    tag_1:\n        /* \"ECAC.sol\":27:2106  contract UserContract {\r... */\n      pop\n      jumpi(tag_2, lt(calldatasize, 0x04))\n      shr(0xe0, calldataload(0x00))\n      dup1\n      0x2993c042\n      eq\n      tag_3\n      jumpi\n      dup1\n      0x3436247b\n      eq\n      tag_4\n      jumpi\n      dup1\n      0x455c928c\n      eq\n      tag_5\n      jumpi\n      dup1\n      0x4f0cd27b\n      eq\n      tag_6\n      jumpi\n      dup1\n      0x6a24c435\n      eq\n      tag_7\n      jumpi\n      dup1\n      0xa87430ba\n      eq\n      tag_8\n      jumpi\n    tag_2:\n      0x00\n      dup1\n      revert\n        /* \"ECAC.sol\":1442:1930  function addPoint_nestedComments(address _userAddress, uint nestedComments) public {\r... */\n    tag_3:\n      tag_9\n      0x04\n      dup1\n      calldatasize\n      sub\n        /* \"--CODEGEN--\":13:15   */\n      0x40\n        /* \"--CODEGEN--\":8:11   */\n      dup2\n        /* \"--CODEGEN--\":5:16   */\n      lt\n        /* \"--CODEGEN--\":2:4   */\n      iszero\n      tag_10\n      jumpi\n        /* \"--CODEGEN--\":29:30   */\n      0x00\n        /* \"--CODEGEN--\":26:27   */\n      dup1\n        /* \"--CODEGEN--\":19:31   */\n      revert\n        /* \"--CODEGEN--\":2:4   */\n    tag_10:\n        /* \"ECAC.sol\":1442:1930  function addPoint_nestedComments(address _userAddress, uint nestedComments) public {\r... */\n      dup2\n      add\n      swap1\n      dup1\n      dup1\n      calldataload\n      0xffffffffffffffffffffffffffffffffffffffff\n      and\n      swap1\n      0x20\n      add\n      swap1\n      swap3\n      swap2\n      swap1\n      dup1\n      calldataload\n      swap1\n      0x20\n      add\n      swap1\n      swap3\n      swap2\n      swap1\n      pop\n      pop\n      pop\n      tag_11\n      jump\t// in\n    tag_9:\n      stop\n        /* \"ECAC.sol\":1990:2101  function refunds(address _userAddress, uint input) public {\r... */\n    tag_4:\n      tag_12\n      0x04\n      dup1\n      calldatasize\n      sub\n        /* \"--CODEGEN--\":13:15   */\n      0x40\n        /* \"--CODEGEN--\":8:11   */\n      dup2\n        /* \"--CODEGEN--\":5:16   */\n      lt\n        /* \"--CODEGEN--\":2:4   */\n      iszero\n      tag_13\n      jumpi\n        /* \"--CODEGEN--\":29:30   */\n      0x00\n        /* \"--CODEGEN--\":26:27   */\n      dup1\n        /* \"--CODEGEN--\":19:31   */\n      revert\n        /* \"--CODEGEN--\":2:4   */\n    tag_13:\n        /* \"ECAC.sol\":1990:2101  function refunds(address _userAddress, uint input) public {\r... */\n      dup2\n      add\n      swap1\n      dup1\n      dup1\n      calldataload\n      0xffffffffffffffffffffffffffffffffffffffff\n      and\n      swap1\n      0x20\n      add\n      swap1\n      swap3\n      swap2\n      swap1\n      dup1\n      calldataload\n      swap1\n      0x20\n      add\n      swap1\n      swap3\n      swap2\n      swap1\n      pop\n      pop\n      pop\n      tag_14\n      jump\t// in\n    tag_12:\n      stop\n        /* \"ECAC.sol\":644:767  function addUser() public {\r... */\n    tag_5:\n      tag_15\n      tag_16\n      jump\t// in\n    tag_15:\n      stop\n        /* \"ECAC.sol\":796:914  function getCount(address _userAddress) public view returns (uint) {\r... */\n    tag_6:\n      tag_17\n      0x04\n      dup1\n      calldatasize\n      sub\n        /* \"--CODEGEN--\":13:15   */\n      0x20\n        /* \"--CODEGEN--\":8:11   */\n      dup2\n        /* \"--CODEGEN--\":5:16   */\n      lt\n        /* \"--CODEGEN--\":2:4   */\n      iszero\n      tag_18\n      jumpi\n        /* \"--CODEGEN--\":29:30   */\n      0x00\n        /* \"--CODEGEN--\":26:27   */\n      dup1\n        /* \"--CODEGEN--\":19:31   */\n      revert\n        /* \"--CODEGEN--\":2:4   */\n    tag_18:\n        /* \"ECAC.sol\":796:914  function getCount(address _userAddress) public view returns (uint) {\r... */\n      dup2\n      add\n      swap1\n      dup1\n      dup1\n      calldataload\n      0xffffffffffffffffffffffffffffffffffffffff\n      and\n      swap1\n      0x20\n      add\n      swap1\n      swap3\n      swap2\n      swap1\n      pop\n      pop\n      pop\n      tag_19\n      jump\t// in\n    tag_17:\n      mload(0x40)\n      dup1\n      dup3\n      dup2\n      mstore\n      0x20\n      add\n      swap2\n      pop\n      pop\n      mload(0x40)\n      dup1\n      swap2\n      sub\n      swap1\n      return\n        /* \"ECAC.sol\":983:1376  function addPoint_likes(address _userAddress, uint likes) public {\r... */\n    tag_7:\n      tag_20\n      0x04\n      dup1\n      calldatasize\n      sub\n        /* \"--CODEGEN--\":13:15   */\n      0x40\n        /* \"--CODEGEN--\":8:11   */\n      dup2\n        /* \"--CODEGEN--\":5:16   */\n      lt\n        /* \"--CODEGEN--\":2:4   */\n      iszero\n      tag_21\n      jumpi\n        /* \"--CODEGEN--\":29:30   */\n      0x00\n        /* \"--CODEGEN--\":26:27   */\n      dup1\n        /* \"--CODEGEN--\":19:31   */\n      revert\n        /* \"--CODEGEN--\":2:4   */\n    tag_21:\n        /* \"ECAC.sol\":983:1376  function addPoint_likes(address _userAddress, uint likes) public {\r... */\n      dup2\n      add\n      swap1\n      dup1\n      dup1\n      calldataload\n      0xffffffffffffffffffffffffffffffffffffffff\n      and\n      swap1\n      0x20\n      add\n      swap1\n      swap3\n      swap2\n      swap1\n      dup1\n      calldataload\n      swap1\n      0x20\n      add\n      swap1\n      swap3\n      swap2\n      swap1\n      pop\n      pop\n      pop\n      tag_22\n      jump\t// in\n    tag_20:\n      stop\n        /* \"ECAC.sol\":205:242  mapping(address => User) public users */\n    tag_8:\n      tag_23\n      0x04\n      dup1\n      calldatasize\n      sub\n        /* \"--CODEGEN--\":13:15   */\n      0x20\n        /* \"--CODEGEN--\":8:11   */\n      dup2\n        /* \"--CODEGEN--\":5:16   */\n      lt\n        /* \"--CODEGEN--\":2:4   */\n      iszero\n      tag_24\n      jumpi\n        /* \"--CODEGEN--\":29:30   */\n      0x00\n        /* \"--CODEGEN--\":26:27   */\n      dup1\n        /* \"--CODEGEN--\":19:31   */\n      revert\n        /* \"--CODEGEN--\":2:4   */\n    tag_24:\n        /* \"ECAC.sol\":205:242  mapping(address => User) public users */\n      dup2\n      add\n      swap1\n      dup1\n      dup1\n      calldataload\n      0xffffffffffffffffffffffffffffffffffffffff\n      and\n      swap1\n      0x20\n      add\n      swap1\n      swap3\n      swap2\n      swap1\n      pop\n      pop\n      pop\n      tag_25\n      jump\t// in\n    tag_23:\n      mload(0x40)\n      dup1\n      dup6\n      dup2\n      mstore\n      0x20\n      add\n      dup5\n      dup2\n      mstore\n      0x20\n      add\n      dup4\n      dup2\n      mstore\n      0x20\n      add\n      dup3\n      iszero\n      iszero\n      iszero\n      iszero\n      dup2\n      mstore\n      0x20\n      add\n      swap5\n      pop\n      pop\n      pop\n      pop\n      pop\n      mload(0x40)\n      dup1\n      swap2\n      sub\n      swap1\n      return\n        /* \"ECAC.sol\":1442:1930  function addPoint_nestedComments(address _userAddress, uint nestedComments) public {\r... */\n    tag_11:\n        /* \"ECAC.sol\":1536:1561  uint nestedCommentsTwenty */\n      0x00\n        /* \"ECAC.sol\":1581:1583  20 */\n      0x14\n        /* \"ECAC.sol\":1564:1578  nestedComments */\n      dup3\n        /* \"ECAC.sol\":1564:1583  nestedComments / 20 */\n      dup2\n      tag_27\n      jumpi\n      invalid\n    tag_27:\n      div\n        /* \"ECAC.sol\":1536:1583  uint nestedCommentsTwenty = nestedComments / 20 */\n      swap1\n      pop\n        /* \"ECAC.sol\":1621:1626  users */\n      0x00\n        /* \"ECAC.sol\":1621:1640  users[_userAddress] */\n      dup1\n        /* \"ECAC.sol\":1627:1639  _userAddress */\n      dup5\n        /* \"ECAC.sol\":1621:1640  users[_userAddress] */\n      0xffffffffffffffffffffffffffffffffffffffff\n      and\n      0xffffffffffffffffffffffffffffffffffffffff\n      and\n      dup2\n      mstore\n      0x20\n      add\n      swap1\n      dup2\n      mstore\n      0x20\n      add\n      0x00\n      keccak256\n        /* \"ECAC.sol\":1621:1664  users[_userAddress].reflectedNestedComments */\n      0x01\n      add\n      sload\n        /* \"ECAC.sol\":1598:1618  nestedCommentsTwenty */\n      dup2\n        /* \"ECAC.sol\":1598:1664  nestedCommentsTwenty > users[_userAddress].reflectedNestedComments */\n      gt\n        /* \"ECAC.sol\":1594:1923  if (nestedCommentsTwenty > users[_userAddress].reflectedNestedComments) {\r... */\n      iszero\n      tag_28\n      jumpi\n        /* \"ECAC.sol\":1779:1782  100 */\n      0x64\n        /* \"ECAC.sol\":1734:1739  users */\n      0x00\n        /* \"ECAC.sol\":1734:1753  users[_userAddress] */\n      dup1\n        /* \"ECAC.sol\":1740:1752  _userAddress */\n      dup6\n        /* \"ECAC.sol\":1734:1753  users[_userAddress] */\n      0xffffffffffffffffffffffffffffffffffffffff\n      and\n      0xffffffffffffffffffffffffffffffffffffffff\n      and\n      dup2\n      mstore\n      0x20\n      add\n      swap1\n      dup2\n      mstore\n      0x20\n      add\n      0x00\n      keccak256\n        /* \"ECAC.sol\":1734:1777  users[_userAddress].reflectedNestedComments */\n      0x01\n      add\n      sload\n        /* \"ECAC.sol\":1713:1733  nestedCommentsTwenty */\n      dup3\n        /* \"ECAC.sol\":1713:1777  nestedCommentsTwenty-users[_userAddress].reflectedNestedComments */\n      sub\n        /* \"ECAC.sol\":1712:1782  (nestedCommentsTwenty-users[_userAddress].reflectedNestedComments)*100 */\n      mul\n        /* \"ECAC.sol\":1681:1686  users */\n      0x00\n        /* \"ECAC.sol\":1681:1700  users[_userAddress] */\n      dup1\n        /* \"ECAC.sol\":1687:1699  _userAddress */\n      dup6\n        /* \"ECAC.sol\":1681:1700  users[_userAddress] */\n      0xffffffffffffffffffffffffffffffffffffffff\n      and\n      0xffffffffffffffffffffffffffffffffffffffff\n      and\n      dup2\n      mstore\n      0x20\n      add\n      swap1\n      dup2\n      mstore\n      0x20\n      add\n      0x00\n      keccak256\n        /* \"ECAC.sol\":1681:1706  users[_userAddress].point */\n      0x02\n      add\n      0x00\n        /* \"ECAC.sol\":1681:1783  users[_userAddress].point +=  ((nestedCommentsTwenty-users[_userAddress].reflectedNestedComments)*100) */\n      dup3\n      dup3\n      sload\n      add\n      swap3\n      pop\n      pop\n      dup2\n      swap1\n      sstore\n      pop\n        /* \"ECAC.sol\":1867:1872  users */\n      0x00\n        /* \"ECAC.sol\":1867:1886  users[_userAddress] */\n      dup1\n        /* \"ECAC.sol\":1873:1885  _userAddress */\n      dup5\n        /* \"ECAC.sol\":1867:1886  users[_userAddress] */\n      0xffffffffffffffffffffffffffffffffffffffff\n      and\n      0xffffffffffffffffffffffffffffffffffffffff\n      and\n      dup2\n      mstore\n      0x20\n      add\n      swap1\n      dup2\n      mstore\n      0x20\n      add\n      0x00\n      keccak256\n        /* \"ECAC.sol\":1867:1910  users[_userAddress].reflectedNestedComments */\n      0x01\n      add\n      sload\n        /* \"ECAC.sol\":1846:1866  nestedCommentsTwenty */\n      dup2\n        /* \"ECAC.sol\":1846:1910  nestedCommentsTwenty-users[_userAddress].reflectedNestedComments */\n      sub\n        /* \"ECAC.sol\":1798:1803  users */\n      0x00\n        /* \"ECAC.sol\":1798:1817  users[_userAddress] */\n      dup1\n        /* \"ECAC.sol\":1804:1816  _userAddress */\n      dup6\n        /* \"ECAC.sol\":1798:1817  users[_userAddress] */\n      0xffffffffffffffffffffffffffffffffffffffff\n      and\n      0xffffffffffffffffffffffffffffffffffffffff\n      and\n      dup2\n      mstore\n      0x20\n      add\n      swap1\n      dup2\n      mstore\n      0x20\n      add\n      0x00\n      keccak256\n        /* \"ECAC.sol\":1798:1841  users[_userAddress].reflectedNestedComments */\n      0x01\n      add\n      0x00\n        /* \"ECAC.sol\":1798:1911  users[_userAddress].reflectedNestedComments += (nestedCommentsTwenty-users[_userAddress].reflectedNestedComments) */\n      dup3\n      dup3\n      sload\n      add\n      swap3\n      pop\n      pop\n      dup2\n      swap1\n      sstore\n      pop\n        /* \"ECAC.sol\":1594:1923  if (nestedCommentsTwenty > users[_userAddress].reflectedNestedComments) {\r... */\n    tag_28:\n        /* \"ECAC.sol\":1442:1930  function addPoint_nestedComments(address _userAddress, uint nestedComments) public {\r... */\n      pop\n      pop\n      pop\n      jump\t// out\n        /* \"ECAC.sol\":1990:2101  function refunds(address _userAddress, uint input) public {\r... */\n    tag_14:\n        /* \"ECAC.sol\":2088:2093  input */\n      dup1\n        /* \"ECAC.sol\":2059:2064  users */\n      0x00\n        /* \"ECAC.sol\":2059:2078  users[_userAddress] */\n      dup1\n        /* \"ECAC.sol\":2065:2077  _userAddress */\n      dup5\n        /* \"ECAC.sol\":2059:2078  users[_userAddress] */\n      0xffffffffffffffffffffffffffffffffffffffff\n      and\n      0xffffffffffffffffffffffffffffffffffffffff\n      and\n      dup2\n      mstore\n      0x20\n      add\n      swap1\n      dup2\n      mstore\n      0x20\n      add\n      0x00\n      keccak256\n        /* \"ECAC.sol\":2059:2084  users[_userAddress].point */\n      0x02\n      add\n      0x00\n        /* \"ECAC.sol\":2059:2093  users[_userAddress].point -= input */\n      dup3\n      dup3\n      sload\n      sub\n      swap3\n      pop\n      pop\n      dup2\n      swap1\n      sstore\n      pop\n        /* \"ECAC.sol\":1990:2101  function refunds(address _userAddress, uint input) public {\r... */\n      pop\n      pop\n      jump\t// out\n        /* \"ECAC.sol\":644:767  function addUser() public {\r... */\n    tag_16:\n        /* \"ECAC.sol\":686:691  users */\n      0x00\n        /* \"ECAC.sol\":686:703  users[msg.sender] */\n      dup1\n        /* \"ECAC.sol\":692:702  msg.sender */\n      caller\n        /* \"ECAC.sol\":686:703  users[msg.sender] */\n      0xffffffffffffffffffffffffffffffffffffffff\n      and\n      0xffffffffffffffffffffffffffffffffffffffff\n      and\n      dup2\n      mstore\n      0x20\n      add\n      swap1\n      dup2\n      mstore\n      0x20\n      add\n      0x00\n      keccak256\n        /* \"ECAC.sol\":686:715  users[msg.sender].initialized */\n      0x03\n      add\n      0x00\n      swap1\n      sload\n      swap1\n      0x0100\n      exp\n      swap1\n      div\n      0xff\n      and\n        /* \"ECAC.sol\":681:760  if (!users[msg.sender].initialized) {\r... */\n      tag_31\n      jumpi\n        /* \"ECAC.sol\":732:748  initializeUser() */\n      tag_32\n        /* \"ECAC.sol\":732:746  initializeUser */\n      tag_33\n        /* \"ECAC.sol\":732:748  initializeUser() */\n      jump\t// in\n    tag_32:\n        /* \"ECAC.sol\":681:760  if (!users[msg.sender].initialized) {\r... */\n    tag_31:\n        /* \"ECAC.sol\":644:767  function addUser() public {\r... */\n      jump\t// out\n        /* \"ECAC.sol\":796:914  function getCount(address _userAddress) public view returns (uint) {\r... */\n    tag_19:\n        /* \"ECAC.sol\":857:861  uint */\n      0x00\n        /* \"ECAC.sol\":881:886  users */\n      dup1\n        /* \"ECAC.sol\":881:900  users[_userAddress] */\n      0x00\n        /* \"ECAC.sol\":887:899  _userAddress */\n      dup4\n        /* \"ECAC.sol\":881:900  users[_userAddress] */\n      0xffffffffffffffffffffffffffffffffffffffff\n      and\n      0xffffffffffffffffffffffffffffffffffffffff\n      and\n      dup2\n      mstore\n      0x20\n      add\n      swap1\n      dup2\n      mstore\n      0x20\n      add\n      0x00\n      keccak256\n        /* \"ECAC.sol\":881:906  users[_userAddress].point */\n      0x02\n      add\n      sload\n        /* \"ECAC.sol\":874:906  return users[_userAddress].point */\n      swap1\n      pop\n        /* \"ECAC.sol\":796:914  function getCount(address _userAddress) public view returns (uint) {\r... */\n      swap2\n      swap1\n      pop\n      jump\t// out\n        /* \"ECAC.sol\":983:1376  function addPoint_likes(address _userAddress, uint likes) public {\r... */\n    tag_22:\n        /* \"ECAC.sol\":1059:1076  uint likesHundred */\n      0x00\n        /* \"ECAC.sol\":1087:1090  100 */\n      0x64\n        /* \"ECAC.sol\":1079:1084  likes */\n      dup3\n        /* \"ECAC.sol\":1079:1090  likes / 100 */\n      dup2\n      tag_36\n      jumpi\n      invalid\n    tag_36:\n      div\n        /* \"ECAC.sol\":1059:1090  uint likesHundred = likes / 100 */\n      swap1\n      pop\n        /* \"ECAC.sol\":1120:1125  users */\n      0x00\n        /* \"ECAC.sol\":1120:1139  users[_userAddress] */\n      dup1\n        /* \"ECAC.sol\":1126:1138  _userAddress */\n      dup5\n        /* \"ECAC.sol\":1120:1139  users[_userAddress] */\n      0xffffffffffffffffffffffffffffffffffffffff\n      and\n      0xffffffffffffffffffffffffffffffffffffffff\n      and\n      dup2\n      mstore\n      0x20\n      add\n      swap1\n      dup2\n      mstore\n      0x20\n      add\n      0x00\n      keccak256\n        /* \"ECAC.sol\":1120:1154  users[_userAddress].reflectedLikes */\n      0x00\n      add\n      sload\n        /* \"ECAC.sol\":1105:1117  likesHundred */\n      dup2\n        /* \"ECAC.sol\":1105:1154  likesHundred > users[_userAddress].reflectedLikes */\n      gt\n        /* \"ECAC.sol\":1101:1369  if (likesHundred > users[_userAddress].reflectedLikes) {\r... */\n      iszero\n      tag_37\n      jumpi\n        /* \"ECAC.sol\":1251:1254  100 */\n      0x64\n        /* \"ECAC.sol\":1215:1220  users */\n      0x00\n        /* \"ECAC.sol\":1215:1234  users[_userAddress] */\n      dup1\n        /* \"ECAC.sol\":1221:1233  _userAddress */\n      dup6\n        /* \"ECAC.sol\":1215:1234  users[_userAddress] */\n      0xffffffffffffffffffffffffffffffffffffffff\n      and\n      0xffffffffffffffffffffffffffffffffffffffff\n      and\n      dup2\n      mstore\n      0x20\n      add\n      swap1\n      dup2\n      mstore\n      0x20\n      add\n      0x00\n      keccak256\n        /* \"ECAC.sol\":1215:1249  users[_userAddress].reflectedLikes */\n      0x00\n      add\n      sload\n        /* \"ECAC.sol\":1202:1214  likesHundred */\n      dup3\n        /* \"ECAC.sol\":1202:1249  likesHundred-users[_userAddress].reflectedLikes */\n      sub\n        /* \"ECAC.sol\":1201:1254  (likesHundred-users[_userAddress].reflectedLikes)*100 */\n      mul\n        /* \"ECAC.sol\":1171:1176  users */\n      0x00\n        /* \"ECAC.sol\":1171:1190  users[_userAddress] */\n      dup1\n        /* \"ECAC.sol\":1177:1189  _userAddress */\n      dup6\n        /* \"ECAC.sol\":1171:1190  users[_userAddress] */\n      0xffffffffffffffffffffffffffffffffffffffff\n      and\n      0xffffffffffffffffffffffffffffffffffffffff\n      and\n      dup2\n      mstore\n      0x20\n      add\n      swap1\n      dup2\n      mstore\n      0x20\n      add\n      0x00\n      keccak256\n        /* \"ECAC.sol\":1171:1196  users[_userAddress].point */\n      0x02\n      add\n      0x00\n        /* \"ECAC.sol\":1171:1255  users[_userAddress].point += ((likesHundred-users[_userAddress].reflectedLikes)*100) */\n      dup3\n      dup3\n      sload\n      add\n      swap3\n      pop\n      pop\n      dup2\n      swap1\n      sstore\n      pop\n        /* \"ECAC.sol\":1322:1327  users */\n      0x00\n        /* \"ECAC.sol\":1322:1341  users[_userAddress] */\n      dup1\n        /* \"ECAC.sol\":1328:1340  _userAddress */\n      dup5\n        /* \"ECAC.sol\":1322:1341  users[_userAddress] */\n      0xffffffffffffffffffffffffffffffffffffffff\n      and\n      0xffffffffffffffffffffffffffffffffffffffff\n      and\n      dup2\n      mstore\n      0x20\n      add\n      swap1\n      dup2\n      mstore\n      0x20\n      add\n      0x00\n      keccak256\n        /* \"ECAC.sol\":1322:1356  users[_userAddress].reflectedLikes */\n      0x00\n      add\n      sload\n        /* \"ECAC.sol\":1309:1321  likesHundred */\n      dup2\n        /* \"ECAC.sol\":1309:1356  likesHundred-users[_userAddress].reflectedLikes */\n      sub\n        /* \"ECAC.sol\":1270:1275  users */\n      0x00\n        /* \"ECAC.sol\":1270:1289  users[_userAddress] */\n      dup1\n        /* \"ECAC.sol\":1276:1288  _userAddress */\n      dup6\n        /* \"ECAC.sol\":1270:1289  users[_userAddress] */\n      0xffffffffffffffffffffffffffffffffffffffff\n      and\n      0xffffffffffffffffffffffffffffffffffffffff\n      and\n      dup2\n      mstore\n      0x20\n      add\n      swap1\n      dup2\n      mstore\n      0x20\n      add\n      0x00\n      keccak256\n        /* \"ECAC.sol\":1270:1304  users[_userAddress].reflectedLikes */\n      0x00\n      add\n      0x00\n        /* \"ECAC.sol\":1270:1357  users[_userAddress].reflectedLikes += (likesHundred-users[_userAddress].reflectedLikes) */\n      dup3\n      dup3\n      sload\n      add\n      swap3\n      pop\n      pop\n      dup2\n      swap1\n      sstore\n      pop\n        /* \"ECAC.sol\":1101:1369  if (likesHundred > users[_userAddress].reflectedLikes) {\r... */\n    tag_37:\n        /* \"ECAC.sol\":983:1376  function addPoint_likes(address _userAddress, uint likes) public {\r... */\n      pop\n      pop\n      pop\n      jump\t// out\n        /* \"ECAC.sol\":205:242  mapping(address => User) public users */\n    tag_25:\n      mstore(0x20, 0x00)\n      dup1\n      0x00\n      mstore\n      keccak256(0x00, 0x40)\n      0x00\n      swap2\n      pop\n      swap1\n      pop\n      dup1\n      0x00\n      add\n      sload\n      swap1\n      dup1\n      0x01\n      add\n      sload\n      swap1\n      dup1\n      0x02\n      add\n      sload\n      swap1\n      dup1\n      0x03\n      add\n      0x00\n      swap1\n      sload\n      swap1\n      0x0100\n      exp\n      swap1\n      div\n      0xff\n      and\n      swap1\n      pop\n      dup5\n      jump\t// out\n        /* \"ECAC.sol\":378:636  function initializeUser() private {\r... */\n    tag_33:\n        /* \"ECAC.sol\":423:439  User memory user */\n      tag_39\n      tag_40\n      jump\t// in\n    tag_39:\n        /* \"ECAC.sol\":442:587  User({\r... */\n      mload(0x40)\n      dup1\n      0x80\n      add\n      0x40\n      mstore\n      dup1\n        /* \"ECAC.sol\":478:479  0 */\n      0x00\n        /* \"ECAC.sol\":442:587  User({\r... */\n      dup2\n      mstore\n      0x20\n      add\n        /* \"ECAC.sol\":519:520  0 */\n      0x00\n        /* \"ECAC.sol\":442:587  User({\r... */\n      dup2\n      mstore\n      0x20\n      add\n        /* \"ECAC.sol\":542:543  0 */\n      0x00\n        /* \"ECAC.sol\":442:587  User({\r... */\n      dup2\n      mstore\n      0x20\n      add\n        /* \"ECAC.sol\":571:575  true */\n      0x01\n        /* \"ECAC.sol\":442:587  User({\r... */\n      iszero\n      iszero\n      dup2\n      mstore\n      pop\n        /* \"ECAC.sol\":423:587  User memory user = User({\r... */\n      swap1\n      pop\n        /* \"ECAC.sol\":624:628  user */\n      dup1\n        /* \"ECAC.sol\":604:609  users */\n      0x00\n        /* \"ECAC.sol\":604:621  users[msg.sender] */\n      dup1\n        /* \"ECAC.sol\":610:620  msg.sender */\n      caller\n        /* \"ECAC.sol\":604:621  users[msg.sender] */\n      0xffffffffffffffffffffffffffffffffffffffff\n      and\n      0xffffffffffffffffffffffffffffffffffffffff\n      and\n      dup2\n      mstore\n      0x20\n      add\n      swap1\n      dup2\n      mstore\n      0x20\n      add\n      0x00\n      keccak256\n        /* \"ECAC.sol\":604:628  users[msg.sender] = user */\n      0x00\n      dup3\n      add\n      mload\n      dup2\n      0x00\n      add\n      sstore\n      0x20\n      dup3\n      add\n      mload\n      dup2\n      0x01\n      add\n      sstore\n      0x40\n      dup3\n      add\n      mload\n      dup2\n      0x02\n      add\n      sstore\n      0x60\n      dup3\n      add\n      mload\n      dup2\n      0x03\n      add\n      exp(0x0100, 0x00)\n      dup2\n      sload\n      dup2\n      0xff\n      mul\n      not\n      and\n      swap1\n      dup4\n      iszero\n      iszero\n      mul\n      or\n      swap1\n      sstore\n      pop\n      swap1\n      pop\n      pop\n        /* \"ECAC.sol\":378:636  function initializeUser() private {\r... */\n      pop\n      jump\t// out\n        /* \"ECAC.sol\":27:2106  contract UserContract {\r... */\n    tag_40:\n      mload(0x40)\n      dup1\n      0x80\n      add\n      0x40\n      mstore\n      dup1\n      0x00\n      dup2\n      mstore\n      0x20\n      add\n      0x00\n      dup2\n      mstore\n      0x20\n      add\n      0x00\n      dup2\n      mstore\n      0x20\n      add\n      iszero(iszero(0x00))\n      dup2\n      mstore\n      pop\n      swap1\n      jump\t// out\n\n    auxdata: 0xa26469706673582212202f7c4e92e431e6b402193fbd77f39dc69da0037ed7bee7180c264ac7c457032b64736f6c63430006000033\n}\n","bytecode":{"linkReferences":{},"object":"608060405234801561001057600080fd5b5061077b806100206000396000f3fe608060405234801561001057600080fd5b50600436106100625760003560e01c80632993c042146100675780633436247b146100b5578063455c928c146101035780634f0cd27b1461010d5780636a24c43514610165578063a87430ba146101b3575b600080fd5b6100b36004803603604081101561007d57600080fd5b81019080803573ffffffffffffffffffffffffffffffffffffffff16906020019092919080359060200190929190505050610224565b005b610101600480360360408110156100cb57600080fd5b81019080803573ffffffffffffffffffffffffffffffffffffffff169060200190929190803590602001909291905050506103a9565b005b61010b6103fc565b005b61014f6004803603602081101561012357600080fd5b81019080803573ffffffffffffffffffffffffffffffffffffffff16906020019092919050505061045a565b6040518082815260200191505060405180910390f35b6101b16004803603604081101561017b57600080fd5b81019080803573ffffffffffffffffffffffffffffffffffffffff169060200190929190803590602001909291905050506104a5565b005b6101f5600480360360208110156101c957600080fd5b81019080803573ffffffffffffffffffffffffffffffffffffffff16906020019092919050505061062a565b604051808581526020018481526020018381526020018215151515815260200194505050505060405180910390f35b60006014828161023057fe5b0490506000808473ffffffffffffffffffffffffffffffffffffffff1673ffffffffffffffffffffffffffffffffffffffff168152602001908152602001600020600101548111156103a45760646000808573ffffffffffffffffffffffffffffffffffffffff1673ffffffffffffffffffffffffffffffffffffffff168152602001908152602001600020600101548203026000808573ffffffffffffffffffffffffffffffffffffffff1673ffffffffffffffffffffffffffffffffffffffff168152602001908152602001600020600201600082825401925050819055506000808473ffffffffffffffffffffffffffffffffffffffff1673ffffffffffffffffffffffffffffffffffffffff1681526020019081526020016000206001015481036000808573ffffffffffffffffffffffffffffffffffffffff1673ffffffffffffffffffffffffffffffffffffffff168152602001908152602001600020600101600082825401925050819055505b505050565b806000808473ffffffffffffffffffffffffffffffffffffffff1673ffffffffffffffffffffffffffffffffffffffff168152602001908152602001600020600201600082825403925050819055505050565b6000803373ffffffffffffffffffffffffffffffffffffffff1673ffffffffffffffffffffffffffffffffffffffff16815260200190815260200160002060030160009054906101000a900460ff1661045857610457610667565b5b565b60008060008373ffffffffffffffffffffffffffffffffffffffff1673ffffffffffffffffffffffffffffffffffffffff168152602001908152602001600020600201549050919050565b6000606482816104b157fe5b0490506000808473ffffffffffffffffffffffffffffffffffffffff1673ffffffffffffffffffffffffffffffffffffffff168152602001908152602001600020600001548111156106255760646000808573ffffffffffffffffffffffffffffffffffffffff1673ffffffffffffffffffffffffffffffffffffffff168152602001908152602001600020600001548203026000808573ffffffffffffffffffffffffffffffffffffffff1673ffffffffffffffffffffffffffffffffffffffff168152602001908152602001600020600201600082825401925050819055506000808473ffffffffffffffffffffffffffffffffffffffff1673ffffffffffffffffffffffffffffffffffffffff1681526020019081526020016000206000015481036000808573ffffffffffffffffffffffffffffffffffffffff1673ffffffffffffffffffffffffffffffffffffffff168152602001908152602001600020600001600082825401925050819055505b505050565b60006020528060005260406000206000915090508060000154908060010154908060020154908060030160009054906101000a900460ff16905084565b61066f61071b565b6040518060800160405280600081526020016000815260200160008152602001600115158152509050806000803373ffffffffffffffffffffffffffffffffffffffff1673ffffffffffffffffffffffffffffffffffffffff16815260200190815260200160002060008201518160000155602082015181600101556040820151816002015560608201518160030160006101000a81548160ff02191690831515021790555090505050565b6040518060800160405280600081526020016000815260200160008152602001600015158152509056fea26469706673582212202f7c4e92e431e6b402193fbd77f39dc69da0037ed7bee7180c264ac7c457032b64736f6c63430006000033","opcodes":"PUSH1 0x80 PUSH1 0x40 MSTORE CALLVALUE DUP1 ISZERO PUSH2 0x10 JUMPI PUSH1 0x0 DUP1 REVERT JUMPDEST POP PUSH2 0x77B DUP1 PUSH2 0x20 PUSH1 0x0 CODECOPY PUSH1 0x0 RETURN INVALID PUSH1 0x80 PUSH1 0x40 MSTORE CALLVALUE DUP1 ISZERO PUSH2 0x10 JUMPI PUSH1 0x0 DUP1 REVERT JUMPDEST POP PUSH1 0x4 CALLDATASIZE LT PUSH2 0x62 JUMPI PUSH1 0x0 CALLDATALOAD PUSH1 0xE0 SHR DUP1 PUSH4 0x2993C042 EQ PUSH2 0x67 JUMPI DUP1 PUSH4 0x3436247B EQ PUSH2 0xB5 JUMPI DUP1 PUSH4 0x455C928C EQ PUSH2 0x103 JUMPI DUP1 PUSH4 0x4F0CD27B EQ PUSH2 0x10D JUMPI DUP1 PUSH4 0x6A24C435 EQ PUSH2 0x165 JUMPI DUP1 PUSH4 0xA87430BA EQ PUSH2 0x1B3 JUMPI JUMPDEST PUSH1 0x0 DUP1 REVERT JUMPDEST PUSH2 0xB3 PUSH1 0x4 DUP1 CALLDATASIZE SUB PUSH1 0x40 DUP2 LT ISZERO PUSH2 0x7D JUMPI PUSH1 0x0 DUP1 REVERT JUMPDEST DUP2 ADD SWAP1 DUP1 DUP1 CALLDATALOAD PUSH20 0xFFFFFFFFFFFFFFFFFFFFFFFFFFFFFFFFFFFFFFFF AND SWAP1 PUSH1 0x20 ADD SWAP1 SWAP3 SWAP2 SWAP1 DUP1 CALLDATALOAD SWAP1 PUSH1 0x20 ADD SWAP1 SWAP3 SWAP2 SWAP1 POP POP POP PUSH2 0x224 JUMP JUMPDEST STOP JUMPDEST PUSH2 0x101 PUSH1 0x4 DUP1 CALLDATASIZE SUB PUSH1 0x40 DUP2 LT ISZERO PUSH2 0xCB JUMPI PUSH1 0x0 DUP1 REVERT JUMPDEST DUP2 ADD SWAP1 DUP1 DUP1 CALLDATALOAD PUSH20 0xFFFFFFFFFFFFFFFFFFFFFFFFFFFFFFFFFFFFFFFF AND SWAP1 PUSH1 0x20 ADD SWAP1 SWAP3 SWAP2 SWAP1 DUP1 CALLDATALOAD SWAP1 PUSH1 0x20 ADD SWAP1 SWAP3 SWAP2 SWAP1 POP POP POP PUSH2 0x3A9 JUMP JUMPDEST STOP JUMPDEST PUSH2 0x10B PUSH2 0x3FC JUMP JUMPDEST STOP JUMPDEST PUSH2 0x14F PUSH1 0x4 DUP1 CALLDATASIZE SUB PUSH1 0x20 DUP2 LT ISZERO PUSH2 0x123 JUMPI PUSH1 0x0 DUP1 REVERT JUMPDEST DUP2 ADD SWAP1 DUP1 DUP1 CALLDATALOAD PUSH20 0xFFFFFFFFFFFFFFFFFFFFFFFFFFFFFFFFFFFFFFFF AND SWAP1 PUSH1 0x20 ADD SWAP1 SWAP3 SWAP2 SWAP1 POP POP POP PUSH2 0x45A JUMP JUMPDEST PUSH1 0x40 MLOAD DUP1 DUP3 DUP2 MSTORE PUSH1 0x20 ADD SWAP2 POP POP PUSH1 0x40 MLOAD DUP1 SWAP2 SUB SWAP1 RETURN JUMPDEST PUSH2 0x1B1 PUSH1 0x4 DUP1 CALLDATASIZE SUB PUSH1 0x40 DUP2 LT ISZERO PUSH2 0x17B JUMPI PUSH1 0x0 DUP1 REVERT JUMPDEST DUP2 ADD SWAP1 DUP1 DUP1 CALLDATALOAD PUSH20 0xFFFFFFFFFFFFFFFFFFFFFFFFFFFFFFFFFFFFFFFF AND SWAP1 PUSH1 0x20 ADD SWAP1 SWAP3 SWAP2 SWAP1 DUP1 CALLDATALOAD SWAP1 PUSH1 0x20 ADD SWAP1 SWAP3 SWAP2 SWAP1 POP POP POP PUSH2 0x4A5 JUMP JUMPDEST STOP JUMPDEST PUSH2 0x1F5 PUSH1 0x4 DUP1 CALLDATASIZE SUB PUSH1 0x20 DUP2 LT ISZERO PUSH2 0x1C9 JUMPI PUSH1 0x0 DUP1 REVERT JUMPDEST DUP2 ADD SWAP1 DUP1 DUP1 CALLDATALOAD PUSH20 0xFFFFFFFFFFFFFFFFFFFFFFFFFFFFFFFFFFFFFFFF AND SWAP1 PUSH1 0x20 ADD SWAP1 SWAP3 SWAP2 SWAP1 POP POP POP PUSH2 0x62A JUMP JUMPDEST PUSH1 0x40 MLOAD DUP1 DUP6 DUP2 MSTORE PUSH1 0x20 ADD DUP5 DUP2 MSTORE PUSH1 0x20 ADD DUP4 DUP2 MSTORE PUSH1 0x20 ADD DUP3 ISZERO ISZERO ISZERO ISZERO DUP2 MSTORE PUSH1 0x20 ADD SWAP5 POP POP POP POP POP PUSH1 0x40 MLOAD DUP1 SWAP2 SUB SWAP1 RETURN JUMPDEST PUSH1 0x0 PUSH1 0x14 DUP3 DUP2 PUSH2 0x230 JUMPI INVALID JUMPDEST DIV SWAP1 POP PUSH1 0x0 DUP1 DUP5 PUSH20 0xFFFFFFFFFFFFFFFFFFFFFFFFFFFFFFFFFFFFFFFF AND PUSH20 0xFFFFFFFFFFFFFFFFFFFFFFFFFFFFFFFFFFFFFFFF AND DUP2 MSTORE PUSH1 0x20 ADD SWAP1 DUP2 MSTORE PUSH1 0x20 ADD PUSH1 0x0 KECCAK256 PUSH1 0x1 ADD SLOAD DUP2 GT ISZERO PUSH2 0x3A4 JUMPI PUSH1 0x64 PUSH1 0x0 DUP1 DUP6 PUSH20 0xFFFFFFFFFFFFFFFFFFFFFFFFFFFFFFFFFFFFFFFF AND PUSH20 0xFFFFFFFFFFFFFFFFFFFFFFFFFFFFFFFFFFFFFFFF AND DUP2 MSTORE PUSH1 0x20 ADD SWAP1 DUP2 MSTORE PUSH1 0x20 ADD PUSH1 0x0 KECCAK256 PUSH1 0x1 ADD SLOAD DUP3 SUB MUL PUSH1 0x0 DUP1 DUP6 PUSH20 0xFFFFFFFFFFFFFFFFFFFFFFFFFFFFFFFFFFFFFFFF AND PUSH20 0xFFFFFFFFFFFFFFFFFFFFFFFFFFFFFFFFFFFFFFFF AND DUP2 MSTORE PUSH1 0x20 ADD SWAP1 DUP2 MSTORE PUSH1 0x20 ADD PUSH1 0x0 KECCAK256 PUSH1 0x2 ADD PUSH1 0x0 DUP3 DUP3 SLOAD ADD SWAP3 POP POP DUP2 SWAP1 SSTORE POP PUSH1 0x0 DUP1 DUP5 PUSH20 0xFFFFFFFFFFFFFFFFFFFFFFFFFFFFFFFFFFFFFFFF AND PUSH20 0xFFFFFFFFFFFFFFFFFFFFFFFFFFFFFFFFFFFFFFFF AND DUP2 MSTORE PUSH1 0x20 ADD SWAP1 DUP2 MSTORE PUSH1 0x20 ADD PUSH1 0x0 KECCAK256 PUSH1 0x1 ADD SLOAD DUP2 SUB PUSH1 0x0 DUP1 DUP6 PUSH20 0xFFFFFFFFFFFFFFFFFFFFFFFFFFFFFFFFFFFFFFFF AND PUSH20 0xFFFFFFFFFFFFFFFFFFFFFFFFFFFFFFFFFFFFFFFF AND DUP2 MSTORE PUSH1 0x20 ADD SWAP1 DUP2 MSTORE PUSH1 0x20 ADD PUSH1 0x0 KECCAK256 PUSH1 0x1 ADD PUSH1 0x0 DUP3 DUP3 SLOAD ADD SWAP3 POP POP DUP2 SWAP1 SSTORE POP JUMPDEST POP POP POP JUMP JUMPDEST DUP1 PUSH1 0x0 DUP1 DUP5 PUSH20 0xFFFFFFFFFFFFFFFFFFFFFFFFFFFFFFFFFFFFFFFF AND PUSH20 0xFFFFFFFFFFFFFFFFFFFFFFFFFFFFFFFFFFFFFFFF AND DUP2 MSTORE PUSH1 0x20 ADD SWAP1 DUP2 MSTORE PUSH1 0x20 ADD PUSH1 0x0 KECCAK256 PUSH1 0x2 ADD PUSH1 0x0 DUP3 DUP3 SLOAD SUB SWAP3 POP POP DUP2 SWAP1 SSTORE POP POP POP JUMP JUMPDEST PUSH1 0x0 DUP1 CALLER PUSH20 0xFFFFFFFFFFFFFFFFFFFFFFFFFFFFFFFFFFFFFFFF AND PUSH20 0xFFFFFFFFFFFFFFFFFFFFFFFFFFFFFFFFFFFFFFFF AND DUP2 MSTORE PUSH1 0x20 ADD SWAP1 DUP2 MSTORE PUSH1 0x20 ADD PUSH1 0x0 KECCAK256 PUSH1 0x3 ADD PUSH1 0x0 SWAP1 SLOAD SWAP1 PUSH2 0x100 EXP SWAP1 DIV PUSH1 0xFF AND PUSH2 0x458 JUMPI PUSH2 0x457 PUSH2 0x667 JUMP JUMPDEST JUMPDEST JUMP JUMPDEST PUSH1 0x0 DUP1 PUSH1 0x0 DUP4 PUSH20 0xFFFFFFFFFFFFFFFFFFFFFFFFFFFFFFFFFFFFFFFF AND PUSH20 0xFFFFFFFFFFFFFFFFFFFFFFFFFFFFFFFFFFFFFFFF AND DUP2 MSTORE PUSH1 0x20 ADD SWAP1 DUP2 MSTORE PUSH1 0x20 ADD PUSH1 0x0 KECCAK256 PUSH1 0x2 ADD SLOAD SWAP1 POP SWAP2 SWAP1 POP JUMP JUMPDEST PUSH1 0x0 PUSH1 0x64 DUP3 DUP2 PUSH2 0x4B1 JUMPI INVALID JUMPDEST DIV SWAP1 POP PUSH1 0x0 DUP1 DUP5 PUSH20 0xFFFFFFFFFFFFFFFFFFFFFFFFFFFFFFFFFFFFFFFF AND PUSH20 0xFFFFFFFFFFFFFFFFFFFFFFFFFFFFFFFFFFFFFFFF AND DUP2 MSTORE PUSH1 0x20 ADD SWAP1 DUP2 MSTORE PUSH1 0x20 ADD PUSH1 0x0 KECCAK256 PUSH1 0x0 ADD SLOAD DUP2 GT ISZERO PUSH2 0x625 JUMPI PUSH1 0x64 PUSH1 0x0 DUP1 DUP6 PUSH20 0xFFFFFFFFFFFFFFFFFFFFFFFFFFFFFFFFFFFFFFFF AND PUSH20 0xFFFFFFFFFFFFFFFFFFFFFFFFFFFFFFFFFFFFFFFF AND DUP2 MSTORE PUSH1 0x20 ADD SWAP1 DUP2 MSTORE PUSH1 0x20 ADD PUSH1 0x0 KECCAK256 PUSH1 0x0 ADD SLOAD DUP3 SUB MUL PUSH1 0x0 DUP1 DUP6 PUSH20 0xFFFFFFFFFFFFFFFFFFFFFFFFFFFFFFFFFFFFFFFF AND PUSH20 0xFFFFFFFFFFFFFFFFFFFFFFFFFFFFFFFFFFFFFFFF AND DUP2 MSTORE PUSH1 0x20 ADD SWAP1 DUP2 MSTORE PUSH1 0x20 ADD PUSH1 0x0 KECCAK256 PUSH1 0x2 ADD PUSH1 0x0 DUP3 DUP3 SLOAD ADD SWAP3 POP POP DUP2 SWAP1 SSTORE POP PUSH1 0x0 DUP1 DUP5 PUSH20 0xFFFFFFFFFFFFFFFFFFFFFFFFFFFFFFFFFFFFFFFF AND PUSH20 0xFFFFFFFFFFFFFFFFFFFFFFFFFFFFFFFFFFFFFFFF AND DUP2 MSTORE PUSH1 0x20 ADD SWAP1 DUP2 MSTORE PUSH1 0x20 ADD PUSH1 0x0 KECCAK256 PUSH1 0x0 ADD SLOAD DUP2 SUB PUSH1 0x0 DUP1 DUP6 PUSH20 0xFFFFFFFFFFFFFFFFFFFFFFFFFFFFFFFFFFFFFFFF AND PUSH20 0xFFFFFFFFFFFFFFFFFFFFFFFFFFFFFFFFFFFFFFFF AND DUP2 MSTORE PUSH1 0x20 ADD SWAP1 DUP2 MSTORE PUSH1 0x20 ADD PUSH1 0x0 KECCAK256 PUSH1 0x0 ADD PUSH1 0x0 DUP3 DUP3 SLOAD ADD SWAP3 POP POP DUP2 SWAP1 SSTORE POP JUMPDEST POP POP POP JUMP JUMPDEST PUSH1 0x0 PUSH1 0x20 MSTORE DUP1 PUSH1 0x0 MSTORE PUSH1 0x40 PUSH1 0x0 KECCAK256 PUSH1 0x0 SWAP2 POP SWAP1 POP DUP1 PUSH1 0x0 ADD SLOAD SWAP1 DUP1 PUSH1 0x1 ADD SLOAD SWAP1 DUP1 PUSH1 0x2 ADD SLOAD SWAP1 DUP1 PUSH1 0x3 ADD PUSH1 0x0 SWAP1 SLOAD SWAP1 PUSH2 0x100 EXP SWAP1 DIV PUSH1 0xFF AND SWAP1 POP DUP5 JUMP JUMPDEST PUSH2 0x66F PUSH2 0x71B JUMP JUMPDEST PUSH1 0x40 MLOAD DUP1 PUSH1 0x80 ADD PUSH1 0x40 MSTORE DUP1 PUSH1 0x0 DUP2 MSTORE PUSH1 0x20 ADD PUSH1 0x0 DUP2 MSTORE PUSH1 0x20 ADD PUSH1 0x0 DUP2 MSTORE PUSH1 0x20 ADD PUSH1 0x1 ISZERO ISZERO DUP2 MSTORE POP SWAP1 POP DUP1 PUSH1 0x0 DUP1 CALLER PUSH20 0xFFFFFFFFFFFFFFFFFFFFFFFFFFFFFFFFFFFFFFFF AND PUSH20 0xFFFFFFFFFFFFFFFFFFFFFFFFFFFFFFFFFFFFFFFF AND DUP2 MSTORE PUSH1 0x20 ADD SWAP1 DUP2 MSTORE PUSH1 0x20 ADD PUSH1 0x0 KECCAK256 PUSH1 0x0 DUP3 ADD MLOAD DUP2 PUSH1 0x0 ADD SSTORE PUSH1 0x20 DUP3 ADD MLOAD DUP2 PUSH1 0x1 ADD SSTORE PUSH1 0x40 DUP3 ADD MLOAD DUP2 PUSH1 0x2 ADD SSTORE PUSH1 0x60 DUP3 ADD MLOAD DUP2 PUSH1 0x3 ADD PUSH1 0x0 PUSH2 0x100 EXP DUP2 SLOAD DUP2 PUSH1 0xFF MUL NOT AND SWAP1 DUP4 ISZERO ISZERO MUL OR SWAP1 SSTORE POP SWAP1 POP POP POP JUMP JUMPDEST PUSH1 0x40 MLOAD DUP1 PUSH1 0x80 ADD PUSH1 0x40 MSTORE DUP1 PUSH1 0x0 DUP2 MSTORE PUSH1 0x20 ADD PUSH1 0x0 DUP2 MSTORE PUSH1 0x20 ADD PUSH1 0x0 DUP2 MSTORE PUSH1 0x20 ADD PUSH1 0x0 ISZERO ISZERO DUP2 MSTORE POP SWAP1 JUMP INVALID LOG2 PUSH5 0x6970667358 0x22 SLT KECCAK256 0x2F PUSH29 0x4E92E431E6B402193FBD77F39DC69DA0037ED7BEE7180C264AC7C45703 0x2B PUSH5 0x736F6C6343 STOP MOD STOP STOP CALLER "},"gasEstimates":{"creation":{"codeDepositCost":"383000","executionCost":"418","totalCost":"383418"},"external":{"addPoint_likes(address,uint256)":"44959","addPoint_nestedComments(address,uint256)":"44871","addUser()":"37418","getCount(address)":"1246","refunds(address,uint256)":"21192","users(address)":"3815"},"internal":{"initializeUser()":"infinite"}},"methodIdentifiers":{"addPoint_likes(address,uint256)":"6a24c435","addPoint_nestedComments(address,uint256)":"2993c042","addUser()":"455c928c","getCount(address)":"4f0cd27b","refunds(address,uint256)":"3436247b","users(address)":"a87430ba"}},"storageLayout":{"storage":[{"astId":14,"contract":"ECAC.sol:UserContract","label":"users","offset":0,"slot":"0","type":"t_mapping(t_address,t_struct(User)10_storage)"}],"types":{"t_address":{"encoding":"inplace","label":"address","numberOfBytes":"20"},"t_bool":{"encoding":"inplace","label":"bool","numberOfBytes":"1"},"t_mapping(t_address,t_struct(User)10_storage)":{"encoding":"mapping","key":"t_address","label":"mapping(address => struct UserContract.User)","numberOfBytes":"32","value":"t_struct(User)10_storage"},"t_struct(User)10_storage":{"encoding":"inplace","label":"struct UserContract.User","members":[{"astId":3,"contract":"ECAC.sol:UserContract","label":"reflectedLikes","offset":0,"slot":"0","type":"t_uint256"},{"astId":5,"contract":"ECAC.sol:UserContract","label":"reflectedNestedComments","offset":0,"slot":"1","type":"t_uint256"},{"astId":7,"contract":"ECAC.sol:UserContract","label":"point","offset":0,"slot":"2","type":"t_uint256"},{"astId":9,"contract":"ECAC.sol:UserContract","label":"initialized","offset":0,"slot":"3","type":"t_bool"}],"numberOfBytes":"128"},"t_uint256":{"encoding":"inplace","label":"uint256","numberOfBytes":"32"}}},"userdoc":{"methods":{}}}